:040000009BEF07F07B
:10080000004552524F525F434F44455F5541525449
:100810005F434F4E464947200D0A004552524F5202
:100820005F434F44455F554152545F4F56455246D2
:100830004C4F57004552524F525F434F44455F550E
:100840004152545F4652414D494E470062616A61D0
:100850002076656C6F6369646164200D0A00616CC9
:1008600074612076656C6F6369646164200D0A00B1
:10087000446573686162696C697461646F200D0A14
:1008800000486162696C697461646F200D0A0078C8
:100890002062617564696F73200D0A00426175649E
:1008A000726174653A20005265636570746F723AC4
:1008B00020004173696E63726F6E6F200054726125
:1008C0006E736F723A200053696E63726F6E6F20A1
:1008D0000050756572746F3A200031362062697479
:1008E0007320004572726F723A200038206269747A
:0B08F0007320004D6F646F3A20000081
:1008FC00000E2D6E27BE8EEF04F0275006E1260465
:10090C00D8B08BEF04F08EEF04F0010E8FEF04F0F3
:10091C00000E2C6ED2B295EF04F098EF04F0010E9D
:10092C0099EF04F0000E286E2606D8A02706285052
:10093C00D8A4A3EF04F0A5EF04F0BAEF04F027BE9F
:10094C00B2EF04F0275006E12604D8B0B0EF04F063
:10095C00B2EF04F090EF04F02C50D8B4B8EF04F0E0
:10096C00BAEF04F090EF04F02850D8A4C0EF04F0D4
:10097C00C2EF04F0C4EF04F0010E2D6E2D50D8A47C
:10098C00CAEF04F0CCEF04F003EF05F0D28A700E3E
:10099C00D312D3B4D4EF04F0D7EF04F0010ED8EF98
:1009AC0004F0000E296E2606D8A027062950D8A4DC
:1009BC00E2EF04F0E4EF04F0F9EF04F027BEF1EFFE
:1009CC0004F0275006E12604D8B0EFEF04F0F1EF65
:1009DC0004F0CFEF04F02C50D8B4F7EF04F0F9EF9B
:1009EC0004F0CFEF04F02950D8A4FFEF04F001EF8E
:1009FC0005F003EF05F0010E2D6E2D50D8A409EF74
:100A0C0005F00BEF05F03FEF05F0D3B610EF05F056
:100A1C0013EF05F0010E14EF05F0000E2A6E2606FA
:100A2C00D8A027062A50D8A41EEF05F020EF05F019
:100A3C0035EF05F027BE2DEF05F0275006E1260413
:100A4C00D8B02BEF05F02DEF05F00BEF05F02C5087
:100A5C00D8B433EF05F035EF05F00BEF05F02A5065
:100A6C00D8A43BEF05F03DEF05F03FEF05F0010E8C
:100A7C002D6E2D50D8A445EF05F047EF05F07DEF16
:100A8C0005F09B8ED288D2BE4EEF05F051EF05F0EB
:100A9C00010E52EF05F0000E2B6E2606D8A027068D
:100AAC002B50D8A45CEF05F05EEF05F073EF05F06A
:100ABC0027BE6BEF05F0275006E12604D8B069EF8E
:100ACC0005F06BEF05F049EF05F02C50D8B471EF41
:100ADC0005F073EF05F049EF05F02B50D8A479EF32
:100AEC0005F07BEF05F07DEF05F0010E2D6E2D501E
:100AFC00D8A483EF05F085EF05F088EF05F0D294CC
:100B0C00FC0ED3161200BBEF05F09C0EB06E3F0E20
:100B1C00AF6E28EF06F0270EB06E0F0EAF6E28EFFB
:100B2C0006F0130EB06E870EAF6E28EF06F0040EB3
:100B3C00B06E7F0EAF6E28EF06F0020EB06E700E28
:100B4C00AF6E28EF06F0000EB06ECF0EAF6E28EF32
:100B5C0006F0000EB06E670EAF6E28EF06F0040EB6
:100B6C00B06EE10EAF6E28EF06F026C02AF027C05B
:100B7C002BF028C02CF029C02DF02D50000AD8B431
:100B8C001DEF06F0B5EF05F02B50010AD8B4E5EFD8
:100B9C0005F0050AD8B4ECEF05F00D0AD8B4F3EF64
:100BAC0005F0210AD8B4FAEF05F0630AD8B401EFC6
:100BBC0006F0AA0AD8B408EF06F0B5EF05F02A50F3
:100BCC002C0AD8B48BEF05F0B5EF05F02A50B00A1B
:100BDC00D8B491EF05F0B5EF05F02A50600AD8B4FF
:100BEC0097EF05F0B5EF05F02A50B10AD8B49DEF98
:100BFC0005F0B5EF05F02A50000AD8B4A3EF05F0C4
:100C0C00B5EF05F02A50000AD8B4A9EF05F0B5EFFE
:100C1C0005F02B50C20AD8B416EF06F0B5EF05F06C
:100C2C002A50000AD8B4AFEF05F0B5EF05F02C5000
:100C3C00000AD8B4CAEF05F0010AD8B40FEF06F0D9
:100C4C00B5EF05F01200F30E3A6E8EEC07F0ACA87F
:100C5C0032EF06F034EF06F03AEF06F0C70E3A6EBC
:100C6C008EEC07F03EEF06F0B20E3A6E8EEC07F00B
:100C7C00ACA443EF06F045EF06F04BEF06F05E0E2A
:100C8C003A6E8EEC07F04FEF06F04C0E3A6E8EEC8F
:100C9C0007F09C0E3A6E8EEC07F0B8A658EF06F0F3
:100CAC005AEF06F060EF06F0DA0E3A6E8EEC07F0B3
:100CBC0064EF06F0EB0E3A6E8EEC07F08F0E3A6E88
:100CCC008EEC07F0D10E3A6E8EEC07F0ABAE71EFF6
:100CDC0006F073EF06F079EF06F0810E3A6E8EECAB
:100CEC0007F07DEF06F0700E3A6E8EEC07F0BD0E3D
:100CFC003A6E8EEC07F0ACAA86EF06F088EF06F0A1
:100D0C008EEF06F0810E3A6E8EEC07F092EF06F045
:100D1C00700E3A6E8EEC07F0A70E3A6E8EEC07F062
:100D2C00ABA89BEF06F09DEF06F0A3EF06F0810E4B
:100D3C003A6E8EEC07F0A7EF06F0700E3A6E8EEC62
:100D4C0007F012002A502B10D8B4AFEF06F0B1EF19
:100D5C0006F0BAEF06F02A502B10D8A4B8EF06F024
:100D6C00BAEF06F0BFEF06F02850B1EC07F00CEF2D
:100D7C0007F020EE0AF02A50D9262B50DA22DE504A
:100D8C00DE10D8B4CCEF06F0CEEF06F0E9EF06F0AB
:100D9C0020EE0AF02A50D9262B50DA2210EE03F05E
:100DAC002A50E1262B50E222DE50E65CE650800A07
:100DBC00306EDE50800A3058D8B0E7EF06F0E9EF1D
:100DCC0006F00CEF07F020EE03F02A50D9262B503A
:100DDC00DA22DECF2CF0DDCF2DF02AC0D9FF2BC0CC
:100DEC00DAFFDECF2EF0DDCF2FF02C502E24D96E73
:100DFC002D502F20DA6E28C0DFFF20EE03F02A5092
:100E0C00D9262B50DA22DE2A000EDD2212003350B6
:100E1C00D96EDA6ADFCFF6FF080EF76E0800F550D0
:100E2C00250AD8A41CEF07F01EEF07F030EF07F0EF
:100E3C003350D96EDA6ADF2A000E226E000E216E54
:100E4C0021C025F0236824683350D96EDA6ADF2A72
:100E5C0043EF07F03350D96EDA6ADFCFF6FF080E96
:100E6C00F76E0800F550286E296A31C02AF032C09E
:100E7C002BF0A8EC06F02AEF07F0120037C039F07F
:100E8C0052EF07F035C031F036C032F0390E336E08
:100E9C0038C034F00DEC07F039C0F6FF080EF76ED1
:100EAC000800F5500009D8A45EEF07F060EF07F0DA
:100EBC0048EF07F0000E366E000E356E1200AC983F
:100ECC00AC84B8863CC026F03DC027F03EC028F06C
:100EDC003FC029F089EC05F0948C948EAB8EAC8AD3
:100EEC00AB8829EC06F012003E0E276E800E266EA3
:100EFC007EEC04F0800E3C6E250E3D6E000E3E6EB8
:100F0C00000E3F6E65EC07F08AEF07F000EF00F083
:100F1C003B0E3B6E000E356E000E366E3AC037F04F
:100F2C003B0E386E44EC07F0120000EE01F0250E7B
:100F3C00EE6AE806FDE1000EF86E00017AEF07F0AC
:100F4C00266EACA2ACEF07F0AEEF07F0A7EF07F000
:100F5C0026C0ADFF1200276E2750A6EC07F012003A
:020000040030CA
:0E00000023095F3CFFD385FF0FC00FE00F40C8
:00000001FF
