:04000000B9EF37F02D
:106F1400016E01C0C9FF1200026E025093EC37F0FB
:106F24001200016EACA299EF37F09BEF37F094EFAB
:106F340037F001C0ADFF1200C7A0A3EF37F0A5EFF3
:106F440037F0A8EF37F0C950A9EF37F0210E12003F
:106F5400260E2A6E000E1D6E000E1E6E24C01FF03B
:106F640025C020F02A0E216E11EC38F0120000EE3C
:106F740060F0200EEE6AE806FDE1406A3F6A3E6A70
:106F84003D6A3C6A000EF86E000134EF38F0AC98AC
:106F9400AC84B8862BC001F02CC002F02DC003F0E5
:106FA4002EC004F068EC3AF0948C948EAB8EAC8ACC
:106FB400AB8808EC3BF01200A00E2E6E860E2F6EEE
:106FC400010E306E000E316EC5EC38F0928A93805B
:106FD40093929396C650F00B0A09C66EC68AC69859
:106FE400C79CC78EABEC3BF012000CBEFCEF37F035
:106FF400FEEF37F004EF38F00BC00BF00CC00CF0D0
:1070040010EF38F00BC00DF00CC00EF00D1E0E1E6C
:107014000D4A0E2A0DC00BF00EC00CF012001FC05A
:1070240022F020C023F021EF38F01DC00FF01EC065
:1070340010F0220E116E21C012F0ABEC3DF022C014
:10704400F6FF23C0F7FF0800F5500009D8A42DEF80
:1070540038F02FEF38F017EF38F0000E1E6E000EE8
:107064001D6E12003E0E026E800E016EA0EC3CF00E
:10707400800E2B6E250E2C6E000E2D6E000E2E6EC5
:10708400C9EC37F0DEEC37F0620E8AEC37F0200EF4
:107094003A6E2A0EE82EFED73A2EFCD79EEC37F035
:1070A40093EC37F03D0E3B6EE10E3A6E400EE82E47
:1070B400FED73A2EFCD73B2EFAD746EF38F000EF36
:1070C40000F02D6E2D50D8B46AEF38F06CEF38F024
:1070D4006EEF38F093EF38F0BD0E246E7F0E256E00
:1070E400AAEC37F07EEF38F0F30E246E7D0E256E99
:1070F400AAEC37F093EF38F02D502B6E2C6A2C50FD
:10710400000AD8B488EF38F093EF38F02B50000A17
:10711400D8B493EF38F0010AD8B476EF38F093EF8F
:1071240038F01200000E016E6C0E026EDC0E036E5F
:10713400020E046EC850136E146AD89013361436B7
:10714400D89013361436040E1326000E142213C0DE
:1071540005F014C006F0000E06BEFF0E076E086EA2
:10716400E2EC39F001C015F002C016F003C017F0CC
:1071740004C018F015C00FF016C010F017C011F0BD
:1071840018C012F01200000E016E6C0E026EDC0EBE
:10719400036E020E046E2EC032F02FC033F030C0E6
:1071A40034F031C035F0020ED890323633363436EE
:1071B4003536E82ED6EF38F032C005F033C006F08D
:1071C40034C007F035C008F0E2EC39F0FF0E0124BA
:1071D400366EFF0E0220376EFF0E0320386EFF0E50
:1071E4000420396E3950381008E13704D8A0FDEF77
:1071F40038F0FFEF38F004EF39F0010E63EC38F0AB
:1072040006EF39F036C0C8FF120005500610D8B496
:107214000EEF39F010EF39F019EF39F00550061080
:10722400D8A417EF39F019EF39F01EEF39F00350F5
:107234008EEC37F06BEF39F020EE0AF00550D926CA
:107244000650DA22DE50DE10D8B42BEF39F02DEFE1
:1072540039F048EF39F020EE0AF00550D9260650EF
:10726400DA2210EE03F00550E1260650E222DE5049
:10727400E65CE650800A0B6EDE50800A0B58D8B0EC
:1072840046EF39F048EF39F06BEF39F020EE03F0B8
:107294000550D9260650DA22DECF07F0DDCF08F0FC
:1072A40005C0D9FF06C0DAFFDECF09F0DDCF0AF052
:1072B40007500924D96E08500A20DA6E03C0DFFF94
:1072C40020EE03F00550D9260650DA22DE2A000EFD
:1072D400DD221200000E0A6E04BE75EF39F073EF62
:1072E40039F07FEF39F0041E031E021E016C000EFC
:1072F400022203220422010E0A6E08BE86EF39F030
:1073040084EF39F08EEF39F0081E071E061E056C57
:10731400000E062207220822055006100710081046
:10732400D8B497EF39F099EF39F0C9EF39F0010E7D
:10733400096EA3EF39F0D8900536063607360836BD
:10734400092A08AEA8EF39F0AAEF39F09DEF39F019
:107354000550015C06500258075003580850045861
:10736400D8A0B7EF39F0B9EF39F0C1EF39F00550D3
:10737400015E0650025A0750035A0850045AD89026
:107384000832073206320532092EAAEF39F00A50C4
:10739400D8B4CFEF39F0D1EF39F0D9EF39F0041E7A
:1073A400031E021E016C000E02220322042201C0ED
:1073B40001F002C002F003C003F004C004F01200A4
:1073C400000E0A6E08BEEBEF39F0E9EF39F0F5EF85
:1073D40039F0081E071E061E056C000E0622072241
:1073E4000822010E0A6E04BEFCEF39F0FAEF39F000
:1073F40006EF3AF0041E031E021E016C000E022268
:1074040003220422010E0A1A000E0B6E000E0C6EEB
:10741400000E0D6E000E0E6E0550061007100810BB
:10742400D8B417EF3AF019EF3AF04FEF3AF0010EF3
:10743400096E23EF3AF0D89005360636073608363B
:10744400092A08AE28EF3AF02AEF3AF01DEF3AF095
:10745400D8900B360C360D360E360550015C0650AE
:1074640002580750035808500458D8A03CEF3AF08B
:107474003EEF3AF047EF3AF00550015E0650025AEB
:107484000750035A0850045A0B80D8900832073228
:1074940006320532092E2AEF3AF00A50D8B455EFD5
:1074A4003AF057EF3AF05FEF3AF00E1E0D1E0C1E45
:1074B4000B6C000E0C220D220E220BC001F00CC02E
:1074C40002F00DC003F00EC004F012009AEF3AF07F
:1074D4009C0EB06E3F0EAF6E07EF3BF0270EB06E02
:1074E4000F0EAF6E07EF3BF0130EB06E870EAF6E4C
:1074F40007EF3BF0040EB06E7F0EAF6E07EF3BF06C
:10750400020EB06E700EAF6E07EF3BF0000EB06E61
:10751400CF0EAF6E07EF3BF0000EB06E670EAF6E8E
:1075240007EF3BF0040EB06EE10EAF6E07EF3BF0D9
:1075340001C005F002C006F003C007F004C008F063
:107544000850000AD8B4FCEF3AF094EF3AF0065031
:10755400010AD8B4C4EF3AF0050AD8B4CBEF3AF034
:107564000D0AD8B4D2EF3AF0210AD8B4D9EF3AF0E0
:10757400630AD8B4E0EF3AF0AA0AD8B4E7EF3AF0D5
:1075840094EF3AF005502C0AD8B46AEF3AF094EF2D
:107594003AF00550B00AD8B470EF3AF094EF3AF0EC
:1075A4000550600AD8B476EF3AF094EF3AF00550FB
:1075B400B10AD8B47CEF3AF094EF3AF00550000ADF
:1075C400D8B482EF3AF094EF3AF00550000AD8B4F8
:1075D40088EF3AF094EF3AF00650C20AD8B4F5EFC7
:1075E4003AF094EF3AF00550000AD8B48EEF3AF02E
:1075F40094EF3AF00750000AD8B4A9EF3AF0010A20
:10760400D8B4EEEF3AF094EF3AF01200D40E246EB0
:107614007F0E256EAAEC37F0ACA813EF3BF015EF04
:107624003BF01DEF3BF08F0E246E7F0E256EAAEC0F
:1076340037F023EF3BF07A0E246E7F0E256EAAEC12
:1076440037F0ACA428EF3BF02AEF3BF032EF3BF0ED
:107654009E0E246E7E0E256EAAEC37F038EF3BF0BA
:107664008C0E246E7E0E256EAAEC37F0640E246E0A
:107674007F0E256EAAEC37F0B8A643EF3BF045EF3A
:107684003BF04DEF3BF0B40E246E7F0E256EAAEC5A
:1076940037F053EF3BF0C50E246E7F0E256EAAEC37
:1076A40037F0410E246E7F0E256EAAEC37F0AB0E38
:1076B400246E7F0E256EAAEC37F0ABAE64EF3BF080
:1076C40066EF3BF06EEF3BF0330E246E7F0E256EBB
:1076D400AAEC37F074EF3BF0D20E246E7E0E256ECA
:1076E400AAEC37F0850E246E7F0E256EAAEC37F0D7
:1076F400ACAA7FEF3BF081EF3BF089EF3BF0330E18
:10770400246E7F0E256EAAEC37F08FEF3BF0D20E7D
:10771400246E7E0E256EAAEC37F06F0E246E7F0E5B
:10772400256EAAEC37F0ABA89AEF3BF09CEF3BF048
:10773400A4EF3BF0330E246E7F0E256EAAEC37F0D7
:10774400AAEF3BF0D20E246E7E0E256EAAEC37F023
:107754001200750E246E7E0E256EAAEC37F0B00E64
:10776400246E7E0E256EAAEC37F0DB0E246E7F0E9F
:10777400256E94EC38F00FC026F010C027F011C02D
:1077840028F012C029F0AAEC37F0E70E246E7F0E21
:10779400256EAAEC37F093A0D2EF3BF0D4EF3BF088
:1077A400DCEF3BF0990E246E7F0E256EAAEC37F0C9
:1077B400E2EF3BF0A20E246E7F0E256EAAEC37F0AA
:1077C400F30E246E7F0E256EAAEC37F093A6EDEF30
:1077D4003BF0EFEF3BF0F7EF3BF0990E246E7F0E9A
:1077E400256EAAEC37F0FDEF3BF0A20E246E7F0E5F
:1077F400256EAAEC37F0ED0E246E7F0E256EAAECF2
:1078040037F093A208EF3CF00AEF3CF012EF3CF0A3
:10781400990E246E7F0E256EAAEC37F018EF3CF01B
:10782400A20E246E7F0E256EAAEC37F0F90E246E9C
:107834007F0E256EAAEC37F092AA23EF3CF025EFD9
:107844003CF02DEF3CF0990E246E7F0E256EAAECD1
:1078540037F033EF3CF0A20E246E7F0E256EAAECB7
:1078640037F0130E246E7F0E256EAAEC37F0C6AAED
:107874003EEF3CF040EF3CF048EF3CF0060E246E47
:107884007F0E256EAAEC37F04EEF3CF0030E246E0B
:107894007F0E256EAAEC37F0C10E246E7E0E256E87
:1078A400AAEC37F0C6A859EF3CF05BEF3CF063EF6D
:1078B4003CF0CD0E246E7F0E256EAAEC37F069EFF6
:1078C4003CF0E10E246E7F0E256EAAEC37F0230EF9
:1078D400246E7F0E256EAAEC37F0C7AC74EF3CF033
:1078E40076EF3CF07EEF3CF0E30E246E7E0E256EC8
:1078F400AAEC37F084EF3CF0F30E246E7E0E256E76
:10790400AAEC37F00F0E246E7E0E256EAAEC37F02B
:10791400C7AE8FEF3CF091EF3CF099EF3CF04E0E88
:10792400246E7F0E256EAAEC37F09FEF3CF0590EC3
:10793400246E7F0E256EAAEC37F01200000E086E3E
:1079440002BEB0EF3CF0025006E10104D8B0ADEF46
:107954003CF0B0EF3CF0010EB1EF3CF0000E076ECE
:10796400D2B2B7EF3CF0BAEF3CF0010EBBEF3CF003
:10797400000E036E0106D8A002060350D8A4C5EF7A
:107984003CF0C7EF3CF0DCEF3CF002BED4EF3CF03F
:10799400025006E10104D8B0D2EF3CF0D4EF3CF041
:1079A400B2EF3CF00750D8B4DAEF3CF0DCEF3CF037
:1079B400B2EF3CF00350D8A4E2EF3CF0E4EF3CF02B
:1079C400E6EF3CF0010E086E0850D8A4ECEF3CF052
:1079D400EEEF3CF025EF3DF0D28A700ED312D3B413
:1079E400F6EF3CF0F9EF3CF0010EFAEF3CF0000E3C
:1079F400046E0106D8A002060450D8A404EF3DF09A
:107A040006EF3DF01BEF3DF002BE13EF3DF00250D8
:107A140006E10104D8B011EF3DF013EF3DF0F1EFB2
:107A24003CF00750D8B419EF3DF01BEF3DF0F1EFF7
:107A34003CF00450D8A421EF3DF023EF3DF025EFB6
:107A44003DF0010E086E0850D8A42BEF3DF02DEF49
:107A54003DF061EF3DF0D3B632EF3DF035EF3DF050
:107A6400010E36EF3DF0000E056E0106D8A00206A9
:107A74000550D8A440EF3DF042EF3DF057EF3DF004
:107A840002BE4FEF3DF0025006E10104D8B04DEFC5
:107A94003DF04FEF3DF02DEF3DF00750D8B455EFDA
:107AA4003DF057EF3DF02DEF3DF00550D8A45DEFCC
:107AB4003DF05FEF3DF061EF3DF0010E086E0850C0
:107AC400D8A467EF3DF069EF3DF09FEF3DF09B8E4A
:107AD400D288D2BE70EF3DF073EF3DF0010E74EF2B
:107AE4003DF0000E066E0106D8A002060650D8A48A
:107AF4007EEF3DF080EF3DF095EF3DF002BE8DEF5F
:107B04003DF0025006E10104D8B08BEF3DF08DEF5B
:107B14003DF06BEF3DF00750D8B493EF3DF095EF97
:107B24003DF06BEF3DF00650D8A49BEF3DF09DEF88
:107B34003DF09FEF3DF0010E086E0850D8A4A5EF6C
:107B44003DF0A7EF3DF0AAEF3DF0D294FC0ED31622
:107B540012001150D96EDA6ADECFF6FFDDCFF7FFDF
:107B64000800F550250AD8A4BAEF3DF0BCEF3DF06B
:107B7400E5EF3EF01150D96EDA6ADE2A000EDD22FE
:107B8400000E3D6E000E3C6E3CC040F03E683F6807
:107B94001150D96EDA6ADECF16F0DDCF17F016C0B9
:107BA400F6FF17C0F7FF0800F5CF1CF0E6EF3DF035
:107BB400164A172AF5EF3DF0690E1C6EF5EF3DF0FD
:107BC400000E1C6EF5EF3DF01C50640AD8B4DEEFD5
:107BD4003DF00D0AD8B4DEEF3DF0050AD8B4DAEF73
:107BE4003DF0E2EF3DF016C0F6FF17C0F7FF0800C6
:107BF400F550640AD8B401EF3EF003EF3EF038EFDD
:107C04003EF016C0F6FF17C0F7FF0800F550690AEA
:107C1400D8A40FEF3EF011EF3EF0DDEF3EF038EF69
:107C24003EF01250D96EDA6ADF50DF2ADF2AD96EAD
:107C3400DA6ADECF18F0DDCF19F0000E19BEFF0EA0
:107C44001A6E1B6E43EF3EF01250D96EDA6A040EC0
:107C5400DF26DF5CD96EDA6ADECF18F0DECF19F0EA
:107C6400DECF1AF0DECF1BF043EF3EF01C50690A62
:107C7400D8B413EF3EF0050AD8B426EF3EF043EF34
:107C84003EF0010E1624136E000E1720146E1150D0
:107C9400D96EDA6A13C0DEFF14C0DDFF200E1C6E3D
:107CA4001BBE57EF3EF05AEF3EF0010E5BEF3EF085
:107CB400000E156E1C061C50600FD96EDA6A18C0CF
:107CC40001F019C002F01AC003F01BC004F00A0E40
:107CD400056E000E066E000E076E000E086E6CEC4C
:107CE40039F001C00BF002C00CF0F7EC37F00B5088
:107CF400300FDF6E18C001F019C002F01AC003F093
:107D04001BC004F00A0E056E000E066E000E076E10
:107D1400000E086EE2EC39F001C018F002C019F050
:107D240003C01AF004C01BF0185019101A101B10CD
:107D3400D8B49FEF3EF0A1EF3EF0A9EF3EF01C5007
:107D4400D8A4A7EF3EF0A9EF3EF05CEF3EF01C5044
:107D5400D8B4AFEF3EF0B1EF3EF0D2EF3EF01550A5
:107D6400D8B4B7EF3EF0B9EF3EF0D2EF3EF01C06C8
:107D74001C50600FD96EDA6A2D0EDF6ED2EF3EF022
:107D84001C50600FD96EDA6ADF50136E1350036E05
:107D9400046A0FC005F010C006F007EC39F01C2A85
:107DA400200E1C18D8A4D9EF3EF0DBEF3EF0C2EF52
:107DB4003EF0F8EF3EF01150D96EDA6ADE2A000E7A
:107DC400DD22F8EF3EF01150D96EDA6ADECFF6FF0D
:107DD400DDCFF7FF0800F550036E046A0FC005F00D
:107DE40010C006F007EC39F0DDEF3EF0120000455C
:107DF40052524F525F434F44455F5350495F425282
:107E04005F4F56455252414E4745004D7565737458
:107E14007261206465206461746F20656E747261A0
:107E24006E74653A20004552524F525F434F4445A9
:107E34005F554152545F434F4E464947200D0A0057
:107E44004552524F525F434F44455F554152545F30
:107E54004F564552464C4F57004552524F525F437E
:107E64004F44455F554152545F4652414D494E4738
:107E7400000D0A436F6E66696775726163696F6EA0
:107E8400205350493A0D0A0062616A612076656C9C
:107E94006F6369646164200D0A00616C746120760B
:107EA400656C6F6369646164200D0A0046726563E2
:107EB40075656E636961205350493A2000506F6CB8
:107EC4006172696461643A2049646C6520004465A8
:107ED40073686162696C697461646F200D0A006182
:107EE400637469766520612069646C650D0A0069B4
:107EF400646C652061206163746976650D0A0064B1
:107F04006573686162696C697461646F0D0A00501D
:107F1400756572746F2073657269616C3A200054E0
:107F240072616E736D6973696F6E20656E200048AF
:107F34006162696C697461646F200D0A0078206263
:107F4400617564696F73200D0A00616C2066696E47
:107F5400616C0D0A00656E206D6564696F0D0A0021
:107F640042617564726174653A200052656365709C
:107F7400746F723A20004173696E63726F6E6F2082
:107F8400005472616E736F723A200053696E6372AB
:107F94006F6E6F2000496E707574200D09004F7567
:107FA400747075740D090050756572746F3A200011
:107FB4003136206269747320004572726F723A2000
:107FC400003820626974732000686967680D0A00CC
:107FD4004D6F646F3A2000256C640D0A006C6F7756
:107FE4000D0A005344493A200053434B3A200053AE
:0B7FF400444F3A200053533A20000095
:020000040030CA
:0E00000023095F3CFFD385FF0FC00FE00F40C8
:00000001FF
