:0400000028EF08F0ED
:10080000004552524F525F434F44455F5541525449
:100810005F4F564552464C4F570D0A004552524FB6
:10082000525F434F44455F554152545F434F4E46DC
:100830004947200D0A004552524F525F434F4445ED
:100840005F554152545F4652414D494E470D0A0093
:1008500062616A612076656C6F6369646164200D12
:100860000A00616C74612076656C6F636964616411
:10087000200D0A00446573686162696C6974616483
:100880006F200D0A00486162696C697461646F20B1
:100890000D0A00782062617564696F73200D0A008B
:1008A00042617564726174653A20005265636570D7
:1008B000746F723A20004173696E63726F6E6F20BD
:1008C000005472616E736F723A200053696E6372E6
:1008D0006F6E6F200050756572746F3A200031366C
:1008E000206269747320004572726F723A2000387A
:0F08F000206269747320004D6F646F3A2000001E
:10090000000E2D6E27BE90EF04F0275006E126045E
:10091000D8B08DEF04F090EF04F0010E91EF04F0E9
:10092000000E2C6ED2B297EF04F09AEF04F0010E95
:100930009BEF04F0000E286E2606D8A0270628504C
:10094000D8A4A5EF04F0A7EF04F0BCEF04F027BE95
:10095000B4EF04F0275006E12604D8B0B2EF04F05B
:10096000B4EF04F092EF04F02C50D8B4BAEF04F0D6
:10097000BCEF04F092EF04F02850D8A4C2EF04F0CA
:10098000C4EF04F0C6EF04F0010E2D6E2D50D8A474
:10099000CCEF04F0CEEF04F005EF05F0D28A700E34
:1009A000D312D3B4D6EF04F0D9EF04F0010EDAEF8E
:1009B00004F0000E296E2606D8A027062950D8A4D8
:1009C000E4EF04F0E6EF04F0FBEF04F027BEF3EFF2
:1009D00004F0275006E12604D8B0F1EF04F0F3EF5D
:1009E00004F0D1EF04F02C50D8B4F9EF04F0FBEF91
:1009F00004F0D1EF04F02950D8A401EF05F003EF83
:100A000005F005EF05F0010E2D6E2D50D8A40BEF6B
:100A100005F00DEF05F041EF05F0D3B612EF05F04C
:100A200015EF05F0010E16EF05F0000E2A6E2606F2
:100A3000D8A027062A50D8A420EF05F022EF05F011
:100A400037EF05F027BE2FEF05F0275006E126040B
:100A5000D8B02DEF05F02FEF05F00DEF05F02C507D
:100A6000D8B435EF05F037EF05F00DEF05F02A505B
:100A7000D8A43DEF05F03FEF05F041EF05F0010E82
:100A80002D6E2D50D8A447EF05F049EF05F07FEF0C
:100A900005F09B8ED288D2BE50EF05F053EF05F0E3
:100AA000010E54EF05F0000E2B6E2606D8A0270687
:100AB0002B50D8A45EEF05F060EF05F075EF05F060
:100AC00027BE6DEF05F0275006E12604D8B06BEF86
:100AD00005F06DEF05F04BEF05F02C50D8B473EF37
:100AE00005F075EF05F04BEF05F02B50D8A47BEF28
:100AF00005F07DEF05F07FEF05F0010E2D6E2D5016
:100B0000D8A485EF05F087EF05F08AEF05F0D294C1
:100B1000FC0ED3161200BDEF05F09C0EB06E3F0E1A
:100B2000AF6E2AEF06F0270EB06E0F0EAF6E2AEFF3
:100B300006F0130EB06E870EAF6E2AEF06F0040EAD
:100B4000B06E7F0EAF6E2AEF06F0020EB06E700E22
:100B5000AF6E2AEF06F0000EB06ECF0EAF6E2AEF2A
:100B600006F0000EB06E670EAF6E2AEF06F0040EB0
:100B7000B06EE10EAF6E2AEF06F026C02AF027C055
:100B80002BF028C02CF029C02DF02D50000AD8B42D
:100B90001FEF06F0B7EF05F02B50010AD8B4E7EFCE
:100BA00005F0050AD8B4EEEF05F00D0AD8B4F5EF5C
:100BB00005F0210AD8B4FCEF05F0630AD8B403EFBE
:100BC00006F0AA0AD8B40AEF06F0B7EF05F02A50EB
:100BD0002C0AD8B48DEF05F0B7EF05F02A50B00A13
:100BE000D8B493EF05F0B7EF05F02A50600AD8B4F7
:100BF00099EF05F0B7EF05F02A50B10AD8B49FEF8E
:100C000005F0B7EF05F02A50000AD8B4A5EF05F0BB
:100C1000B7EF05F02A50000AD8B4ABEF05F0B7EFF4
:100C200005F02B50C20AD8B418EF06F0B7EF05F064
:100C30002A50000AD8B4B1EF05F0B7EF05F02C50F8
:100C4000000AD8B4CCEF05F0010AD8B411EF06F0D1
:100C5000B7EF05F01200F70E3A6E1BEC08F0ACA8E7
:100C600034EF06F036EF06F03CEF06F0CB0E3A6EAE
:100C70001BEC08F040EF06F0B60E3A6E1BEC08F0E5
:100C8000ACA445EF06F047EF06F04DEF06F0620E1C
:100C90003A6E1BEC08F051EF06F0500E3A6E1BEC6A
:100CA00008F0A00E3A6E1BEC08F0B8A65AEF06F05A
:100CB0005CEF06F062EF06F0DE0E3A6E1BEC08F019
:100CC00066EF06F0EF0E3A6E1BEC08F0930E3A6EEC
:100CD0001BEC08F0D50E3A6E1BEC08F0ABAE73EFD0
:100CE00006F075EF06F07BEF06F0850E3A6E1BEC12
:100CF00008F07FEF06F0740E3A6E1BEC08F0C10EA0
:100D00003A6E1BEC08F0ACAA88EF06F08AEF06F00A
:100D100090EF06F0850E3A6E1BEC08F094EF06F0AB
:100D2000740E3A6E1BEC08F0AB0E3A6E1BEC08F03A
:100D3000ABA89DEF06F09FEF06F0A5EF06F0850E3D
:100D40003A6E1BEC08F0A9EF06F0740E3A6E1BEC3D
:100D500008F012002A502B10D8B4B1EF06F0B3EF10
:100D600006F0BCEF06F02A502B10D8A4BAEF06F01C
:100D7000BCEF06F0C1EF06F0285048EC08F00EEF8B
:100D800007F020EE0AF02A50D9262B50DA22DE5046
:100D9000DE10D8B4CEEF06F0D0EF06F0EBEF06F0A1
:100DA00020EE0AF02A50D9262B50DA2210EE03F05A
:100DB0002A50E1262B50E222DE50E65CE650800A03
:100DC000306EDE50800A3058D8B0E9EF06F0EBEF15
:100DD00006F00EEF07F020EE03F02A50D9262B5034
:100DE000DA22DECF2CF0DDCF2DF02AC0D9FF2BC0C8
:100DF000DAFFDECF2EF0DDCF2FF02C502E24D96E6F
:100E00002D502F20DA6E28C0DFFF20EE03F02A508D
:100E1000D9262B50DA22DE2A000EDD2212003E6E89
:100E20003E50D8A416EF07F018EF07F01AEF07F0BE
:100E30004BEF07F0E70E3A6E1BEC08F032EF07F0CD
:100E4000010E3A6E1BEC08F04BEF07F0360E3A6ECF
:100E50001BEC08F04BEF07F01C0E3A6E1BEC08F091
:100E60004BEF07F03E503C6E3D6A3D50000AD8B44F
:100E70003CEF07F04BEF07F03C50010AD8B420EFED
:100E800007F0030AD8B426EF07F0010AD8B42CEF14
:100E900007F04BEF07F012003350D96EDA6ADFCF5C
:100EA000F6FF080EF76E0800F550250AD8A45BEF90
:100EB00007F05DEF07F06FEF07F03350D96EDA6A95
:100EC000DF2A000E226E000E216E21C025F023685D
:100ED00024683350D96EDA6ADF2A82EF07F0335084
:100EE000D96EDA6ADFCFF6FF080EF76E0800F5500C
:100EF000286E296A31C02AF032C02BF0AAEC06F025
:100F000069EF07F012003E0E276E800E266E80EC11
:100F100004F0800E3C6E250E3D6E000E3E6E000EFF
:100F20003F6EE7EC07F0C8EC07F00009D8B49BEF80
:100F300007F09DEF07F093EF07F03EEC08F0406EEE
:100F4000405033EC08F093EF07F000EF00F037C0AB
:100F500039F0B5EF07F035C031F036C032F0390E58
:100F6000336E38C034F04CEC07F039C0F6FF080E91
:100F7000F76E0800F5500009D8A4C1EF07F0C3EFE1
:100F800007F0ABEF07F0000E366E000E356E120064
:100F9000ABAECDEF07F0CFEF07F0D6EF07F0ABB871
:100FA000D4EF07F0D6EF07F0DCEF07F0030E0FECFD
:100FB00007F0000EE6EF07F09EBAE1EF07F0E3EF6F
:100FC00007F0E5EF07F0D9EF07F0010E1200AC983B
:100FD000AC844A0EB86E3CC026F03DC027F03EC03F
:100FE00028F03FC029F08BEC05F0948C948EAB8EEA
:100FF000AC8AAB882BEC06F0000E0F015D6F12007F
:10100000ABA205EF08F007EF08F00CEF08F0AB9883
:10101000AB88010E0DEF08F0000E1200ABA413EF29
:1010200008F015EF08F019EF08F0AE50020E1AEFB5
:1010300008F0000E12003B0E3B6E000E356E000EE7
:10104000366E3AC037F03B0E386EA7EC07F0120050
:1010500000EE01F0250EEE6AE806FDE1000EF86EE6
:10106000000183EF07F0266EACA239EF08F03BEFEA
:1010700008F034EF08F026C0ADFF120000EC08F0D5
:101080000FEC07F00EEC08F00FEC07F0AE5012007A
:0A109000276E275033EC08F0120021
:020000040030CA
:0E00000023095F3CFFD385FF0FC00FE00F40C8
:00000001FF
