:04000000E9EF3AF0FA
:1075AA00016E01C0C9FF1200026E0250DEEC3AF011
:1075BA001200016EACA2E4EF3AF0E6EF3AF0DFEF28
:1075CA003AF001C0ADFF120000EE2BF0250EEE6A74
:1075DA00E806FDE1000EF86E00015EEF3BF0C7A081
:1075EA00F9EF3AF0FBEF3AF0FEEF3AF0C950FFEF4D
:1075FA003AF0210E1200190E196E000E106E000ECE
:10760A00116E17C012F018C013F0190E146E3BEC6D
:10761A003BF01200AC98AC84B8861AC001F01BC0CB
:10762A0002F01CC003F01DC004F026EC3DF0948C5F
:10763A00948EAB8EAC8AAB88C6EC3DF01200A00EDD
:10764A001D6E860E1E6E010E1F6E000E206EF9EC68
:10765A003BF0928A938093929396C650F00B0A0954
:10766A00C66EC68AC698C688C78E120012C015F0A2
:10767A0013C016F04BEF3BF010C00CF011C00DF028
:10768A00150E0E6E14C00FF0BEEC3BF015C0F6FFDF
:10769A0016C0F7FF0800F5500009D8A457EF3BF0D1
:1076AA0059EF3BF041EF3BF0000E116E000E106EE9
:1076BA0012003E0E026E800E016E69EC3EF0800EE4
:1076CA001A6E250E1B6E000E1C6E000E1D6E0FEC40
:1076DA003BF024EC3BF0620ED5EC3AF0200E296E1A
:1076EA002A0EE82EFED7292EFCD7F4EC3AF0DEEC6F
:1076FA003AF03D0E2A6EE10E296E400EE82EFED7B4
:10770A00292EFCD72A2EFAD770EF3BF000EF00F0B3
:10771A001C6E1C50D8B494EF3BF096EF3BF098EFF8
:10772A003BF0BDEF3BF0E70E176E7F0E186E00ECD4
:10773A003BF0A8EF3BF0E90E176E7E0E186E00ECD8
:10774A003BF0BDEF3BF01C501A6E1B6A1B50000A3F
:10775A00D8B4B2EF3BF0BDEF3BF01A50000AD8B4F0
:10776A00BDEF3BF0010AD8B4A0EF3BF0BDEF3BF010
:10777A0012000E50D96EDA6ADECFF6FFDDCFF7FFC0
:10778A000800F550250AD8A4CDEF3BF0CFEF3BF027
:10779A00E5EF3BF00E50D96EDA6ADE2A000EDD22E2
:1077AA00000E4C6E000E4B6E4BC04FF04D684E688B
:1077BA000E50D96EDA6ADE2A000EDD22F8EF3BF0AF
:1077CA000E50D96EDA6ADECFF6FFDDCFF7FF08007A
:1077DA00F550036E046A0CC005F00DC006F03BECD0
:1077EA003CF0DDEF3BF01200000E016E6C0E026EF3
:1077FA00DC0E036E020E046E1DC021F01EC022F0C4
:10780A001FC023F020C024F0020ED8902136223661
:10781A0023362436E82E0AEF3CF021C005F022C0B8
:10782A0006F023C007F024C008F0A0EC3CF0FF0EDD
:10783A000124256EFF0E0220266EFF0E0320276EFE
:10784A00FF0E0420286E2850271008E12604D8A02D
:10785A0031EF3CF033EF3CF038EF3CF0010E8DECA9
:10786A003BF03AEF3CF025C0C8FF12000550061065
:10787A00D8B442EF3CF044EF3CF04DEF3CF00550F9
:10788A000610D8A44BEF3CF04DEF3CF052EF3CF021
:10789A000350D9EC3AF09FEF3CF020EE0AF0055085
:1078AA00D9260650DA22DE50DE10D8B45FEF3CF05B
:1078BA0061EF3CF07CEF3CF020EE0AF00550D9264F
:1078CA000650DA2210EE03F00550E1260650E222B5
:1078DA00DE50E65CE650800A0B6EDE50800A0B58DA
:1078EA00D8B07AEF3CF07CEF3CF09FEF3CF020EE12
:1078FA0003F00550D9260650DA22DECF07F0DDCF95
:10790A0008F005C0D9FF06C0DAFFDECF09F0DDCFE7
:10791A000AF007500924D96E08500A20DA6E03C00B
:10792A00DFFF20EE03F00550D9260650DA22DE2AC0
:10793A00000EDD221200000E0A6E08BEA9EF3CF00E
:10794A00A7EF3CF0B3EF3CF0081E071E061E056CBD
:10795A00000E062207220822010E0A6E04BEBAEFA2
:10796A003CF0B8EF3CF0C4EF3CF0041E031E021ECC
:10797A00016C000E022203220422010E0A1A000ED2
:10798A000B6E000E0C6E000E0D6E000E0E6E055084
:10799A00061007100810D8B4D5EF3CF0D7EF3CF02A
:1079AA000DEF3DF0010E096EE1EF3CF0D89005367F
:1079BA00063607360836092A08AEE6EF3CF0E8EF45
:1079CA003CF0DBEF3CF0D8900B360C360D360E3619
:1079DA000550015C065002580750035808500458D5
:1079EA00D8A0FAEF3CF0FCEF3CF005EF3DF0055073
:1079FA00015E0650025A0750035A0850045A0B8077
:107A0A00D8900832073206320532092EE8EF3CF0E8
:107A1A000A50D8B413EF3DF015EF3DF01DEF3DF0DD
:107A2A000E1E0D1E0C1E0B6C000E0C220D220E22B9
:107A3A000BC001F00CC002F00DC003F00EC004F040
:107A4A00120058EF3DF09C0EB06E3F0EAF6EC5EFC0
:107A5A003DF0270EB06E0F0EAF6EC5EF3DF0130E60
:107A6A00B06E870EAF6EC5EF3DF0040EB06E7F0E9E
:107A7A00AF6EC5EF3DF0020EB06E700EAF6EC5EF81
:107A8A003DF0000EB06ECF0EAF6EC5EF3DF0000EAA
:107A9A00B06E670EAF6EC5EF3DF0040EB06EE10E2C
:107AAA00AF6EC5EF3DF001C005F002C006F003C09D
:107ABA0007F004C008F00850000AD8B4BAEF3DF045
:107ACA0052EF3DF00650010AD8B482EF3DF0050AA4
:107ADA00D8B489EF3DF00D0AD8B490EF3DF0210AF1
:107AEA00D8B497EF3DF0630AD8B49EEF3DF0AA0AE6
:107AFA00D8B4A5EF3DF052EF3DF005502C0AD8B4AA
:107B0A0028EF3DF052EF3DF00550B00AD8B42EEF01
:107B1A003DF052EF3DF00550600AD8B434EF3DF025
:107B2A0052EF3DF00550B10AD8B43AEF3DF052EFAA
:107B3A003DF00550000AD8B440EF3DF052EF3DF059
:107B4A000550000AD8B446EF3DF052EF3DF006501A
:107B5A00C20AD8B4B3EF3DF052EF3DF00550000A27
:107B6A00D8B44CEF3DF052EF3DF00750000AD8B4BC
:107B7A0067EF3DF0010AD8B4ACEF3DF052EF3DF0AB
:107B8A001200F70E176E7F0E186E00EC3BF0ACA8D1
:107B9A00D1EF3DF0D3EF3DF0DBEF3DF0CB0E176EAA
:107BAA007F0E186E00EC3BF0E1EF3DF0B60E176E5B
:107BBA007F0E186E00EC3BF0ACA4E6EF3DF0E8EF68
:107BCA003DF0F0EF3DF0620E176E7F0E186E00EC7E
:107BDA003BF0F6EF3DF0500E176E7F0E186E00EC7C
:107BEA003BF0A00E176E7F0E186E00EC3BF0B8A6A5
:107BFA0001EF3EF003EF3EF00BEF3EF0DE0E176EA4
:107C0A007F0E186E00EC3BF011EF3EF0EF0E176E90
:107C1A007F0E186E00EC3BF0930E176E7F0E186EF7
:107C2A0000EC3BF0D50E176E7F0E186E00EC3BF0A1
:107C3A00ABAE22EF3EF024EF3EF02CEF3EF0850E85
:107C4A00176E7F0E186E00EC3BF032EF3EF0740EAA
:107C5A00176E7F0E186E00EC3BF0C10E176E7F0E8A
:107C6A00186E00EC3BF0ACAA3DEF3EF03FEF3EF061
:107C7A0047EF3EF0850E176E7F0E186E00EC3BF054
:107C8A004DEF3EF0740E176E7F0E186E00EC3BF04F
:107C9A00AB0E176E7F0E186E00EC3BF0ABA858EFD8
:107CAA003EF05AEF3EF062EF3EF0850E176E7F0E01
:107CBA00186E00EC3BF068EF3EF0740E176E7F0E04
:107CCA00186E00EC3BF01200000E086E02BE79EF4F
:107CDA003EF0025006E10104D8B076EF3EF079EFAB
:107CEA003EF0010E7AEF3EF0000E076ED2B280EF40
:107CFA003EF083EF3EF0010E84EF3EF0000E036E7D
:107D0A000106D8A002060350D8A48EEF3EF090EFE9
:107D1A003EF0A5EF3EF002BE9DEF3EF0025006E1B6
:107D2A000104D8B09BEF3EF09DEF3EF07BEF3EF0B2
:107D3A000750D8B4A3EF3EF0A5EF3EF07BEF3EF03C
:107D4A000350D8A4ABEF3EF0ADEF3EF0AFEF3EF0FC
:107D5A00010E086E0850D8A4B5EF3EF0B7EF3EF01A
:107D6A00EEEF3EF0D28A700ED312D3B4BFEF3EF0DC
:107D7A00C2EF3EF0010EC3EF3EF0000E046E0106A4
:107D8A00D8A002060450D8A4CDEF3EF0CFEF3EF0C3
:107D9A00E4EF3EF002BEDCEF3EF0025006E10104E1
:107DAA00D8B0DAEF3EF0DCEF3EF0BAEF3EF0075023
:107DBA00D8B4E2EF3EF0E4EF3EF0BAEF3EF0045002
:107DCA00D8A4EAEF3EF0ECEF3EF0EEEF3EF0010E03
:107DDA00086E0850D8A4F4EF3EF0F6EF3EF02AEF12
:107DEA003FF0D3B6FBEF3EF0FEEF3EF0010EFFEFA1
:107DFA003EF0000E056E0106D8A002060550D8A472
:107E0A0009EF3FF00BEF3FF020EF3FF002BE18EF13
:107E1A003FF0025006E10104D8B016EF3FF018EF28
:107E2A003FF0F6EF3EF00750D8B41EEF3FF020EFD8
:107E3A003FF0F6EF3EF00550D8A426EF3FF028EFCA
:107E4A003FF02AEF3FF0010E086E0850D8A430EF39
:107E5A003FF032EF3FF068EF3FF09B8ED288D2BE00
:107E6A0039EF3FF03CEF3FF0010E3DEF3FF0000EDF
:107E7A00066E0106D8A002060650D8A447EF3FF0C6
:107E8A0049EF3FF05EEF3FF002BE56EF3FF002507F
:107E9A0006E10104D8B054EF3FF056EF3FF034EF5B
:107EAA003FF00750D8B45CEF3FF05EEF3FF034EF9D
:107EBA003FF00650D8A464EF3FF066EF3FF068EF5A
:107ECA003FF0010E086E0850D8A46EEF3FF070EF35
:107EDA003FF073EF3FF0D294FC0ED3161200004528
:107EEA0052524F525F434F44455F5350495F42528B
:107EFA005F4F56455252414E4745004552524F52E6
:107F0A005F434F44455F554152545F434F4E464984
:107F1A0047200D0A004552524F525F434F44455F76
:107F2A00554152545F4F564552464C4F57004552A1
:107F3A00524F525F434F44455F554152545F465238
:107F4A00414D494E470062616A612076656C6F63F4
:107F5A0069646164200D0A00616C74612076656C45
:107F6A006F6369646164200D0A0044657368616225
:107F7A00696C697461646F200D0A00486162696CFA
:107F8A00697461646F200D0A007820626175646902
:107F9A006F73200D0A0042617564726174653A203C
:107FAA00005265636570746F723A20004173696E9E
:107FBA0063726F6E6F20005472616E736F723A2033
:107FCA000053696E63726F6E6F200050756572742C
:107FDA006F3A20003136206269747320004572724C
:107FEA006F723A200038206269747320004D6F6402
:057FFA006F3A200000B9
:020000040030CA
:0E00000023095F3CFFD385FF0FC00FE00F40C8
:00000001FF
