:0400000038EF08F0DD
:10080000004552524F525F434F44455F5541525449
:100810005F434F4E464947200D0A004552524F5202
:100820005F434F44455F554152545F4F56455246D2
:100830004C4F57004552524F525F434F44455F550E
:100840004152545F4652414D494E470062616A61D0
:100850002076656C6F6369646164200D0A00616CC9
:1008600074612076656C6F6369646164200D0A00B1
:10087000446573686162696C697461646F200D0A14
:1008800000486162696C697461646F200D0A0078C8
:100890002062617564696F73200D0A00426175649E
:1008A000726174653A20005265636570746F723AC4
:1008B00020004173696E63726F6E6F200054726125
:1008C0006E736F723A200053696E63726F6E6F20A1
:1008D0000050756572746F3A200031362062697479
:1008E0007320004572726F723A200038206269747A
:0B08F0007320004D6F646F3A20000081
:1008FC00000E2E6E28BE8EEF04F0285006E1270461
:10090C00D8B08BEF04F08EEF04F0010E8FEF04F0F3
:10091C00000E2D6ED2B295EF04F098EF04F0010E9C
:10092C0099EF04F0000E296E2706D8A0280629504E
:10093C00D8A4A3EF04F0A5EF04F0BAEF04F028BE9E
:10094C00B2EF04F0285006E12704D8B0B0EF04F061
:10095C00B2EF04F090EF04F02D50D8B4B8EF04F0DF
:10096C00BAEF04F090EF04F02950D8A4C0EF04F0D3
:10097C00C2EF04F0C4EF04F0010E2E6E2E50D8A47A
:10098C00CAEF04F0CCEF04F003EF05F0D28A700E3E
:10099C00D312D3B4D4EF04F0D7EF04F0010ED8EF98
:1009AC0004F0000E2A6E2706D8A028062A50D8A4D8
:1009BC00E2EF04F0E4EF04F0F9EF04F028BEF1EFFD
:1009CC0004F0285006E12704D8B0EFEF04F0F1EF63
:1009DC0004F0CFEF04F02D50D8B4F7EF04F0F9EF9A
:1009EC0004F0CFEF04F02A50D8A4FFEF04F001EF8D
:1009FC0005F003EF05F0010E2E6E2E50D8A409EF72
:100A0C0005F00BEF05F03FEF05F0D3B610EF05F056
:100A1C0013EF05F0010E14EF05F0000E2B6E2706F8
:100A2C00D8A028062B50D8A41EEF05F020EF05F017
:100A3C0035EF05F028BE2DEF05F0285006E1270410
:100A4C00D8B02BEF05F02DEF05F00BEF05F02D5086
:100A5C00D8B433EF05F035EF05F00BEF05F02B5064
:100A6C00D8A43BEF05F03DEF05F03FEF05F0010E8C
:100A7C002E6E2E50D8A445EF05F047EF05F07DEF14
:100A8C0005F09B8ED288D2BE4EEF05F051EF05F0EB
:100A9C00010E52EF05F0000E2C6E2706D8A028068A
:100AAC002C50D8A45CEF05F05EEF05F073EF05F069
:100ABC0028BE6BEF05F0285006E12704D8B069EF8B
:100ACC0005F06BEF05F049EF05F02D50D8B471EF40
:100ADC0005F073EF05F049EF05F02C50D8A479EF31
:100AEC0005F07BEF05F07DEF05F0010E2E6E2E501C
:100AFC00D8A483EF05F085EF05F088EF05F0D294CC
:100B0C00FC0ED3161200BBEF05F09C0EB06E3F0E20
:100B1C00AF6E28EF06F0270EB06E0F0EAF6E28EFFB
:100B2C0006F0130EB06E870EAF6E28EF06F0040EB3
:100B3C00B06E7F0EAF6E28EF06F0020EB06E700E28
:100B4C00AF6E28EF06F0000EB06ECF0EAF6E28EF32
:100B5C0006F0000EB06E670EAF6E28EF06F0040EB6
:100B6C00B06EE10EAF6E28EF06F027C02BF028C058
:100B7C002CF029C02DF02AC02EF02E50000AD8B42B
:100B8C001DEF06F0B5EF05F02C50010AD8B4E5EFD7
:100B9C0005F0050AD8B4ECEF05F00D0AD8B4F3EF64
:100BAC0005F0210AD8B4FAEF05F0630AD8B401EFC6
:100BBC0006F0AA0AD8B408EF06F0B5EF05F02B50F2
:100BCC002C0AD8B48BEF05F0B5EF05F02B50B00A1A
:100BDC00D8B491EF05F0B5EF05F02B50600AD8B4FE
:100BEC0097EF05F0B5EF05F02B50B10AD8B49DEF97
:100BFC0005F0B5EF05F02B50000AD8B4A3EF05F0C3
:100C0C00B5EF05F02B50000AD8B4A9EF05F0B5EFFD
:100C1C0005F02C50C20AD8B416EF06F0B5EF05F06B
:100C2C002B50000AD8B4AFEF05F0B5EF05F02D50FE
:100C3C00000AD8B4CAEF05F0010AD8B40FEF06F0D9
:100C4C00B5EF05F01200F30E3B6E2BEC08F0ACA8E0
:100C5C0032EF06F034EF06F03AEF06F0C70E3B6EBB
:100C6C002BEC08F03EEF06F0B20E3B6E2BEC08F0CE
:100C7C00ACA443EF06F045EF06F04BEF06F05E0E2A
:100C8C003B6E2BEC08F04FEF06F04C0E3B6E2BEC52
:100C9C0008F09C0E3B6E2BEC08F0B8A658EF06F053
:100CAC005AEF06F060EF06F0DA0E3B6E2BEC08F014
:100CBC0064EF06F0EB0E3B6E2BEC08F08F0E3B6EE8
:100CCC002BEC08F0D10E3B6E2BEC08F0ABAE71EFB9
:100CDC0006F073EF06F079EF06F0810E3B6E2BEC0D
:100CEC0008F07DEF06F0700E3B6E2BEC08F0BD0E9D
:100CFC003B6E2BEC08F0ACAA86EF06F088EF06F002
:100D0C008EEF06F0810E3B6E2BEC08F092EF06F0A6
:100D1C00700E3B6E2BEC08F0A70E3B6E2BEC08F024
:100D2C00ABA89BEF06F09DEF06F0A3EF06F0810E4B
:100D3C003B6E2BEC08F0A7EF06F0700E3B6E2BEC25
:100D4C0008F012002B502C10D8B4AFEF06F0B1EF16
:100D5C0006F0BAEF06F02B502C10D8A4B8EF06F022
:100D6C00BAEF06F0BFEF06F0295058EC08F00CEF84
:100D7C0007F020EE0AF02B50D9262C50DA22DE5048
:100D8C00DE10D8B4CCEF06F0CEEF06F0E9EF06F0AB
:100D9C0020EE0AF02B50D9262C50DA2210EE03F05C
:100DAC002B50E1262C50E222DE50E65CE650800A05
:100DBC00316EDE50800A3158D8B0E7EF06F0E9EF1B
:100DCC0006F00CEF07F020EE03F02B50D9262C5038
:100DDC00DA22DECF2DF0DDCF2EF02BC0D9FF2CC0C8
:100DEC00DAFFDECF2FF0DDCF30F02D502F24D96E6F
:100DFC002E503020DA6E29C0DFFF20EE03F02B508E
:100E0C00D9262C50DA22DE2A000EDD2212003F6E8B
:100E1C003F50D8A414EF07F016EF07F018EF07F0C7
:100E2C0049EF07F0E30E3B6E2BEC08F030EF07F0C8
:100E3C001B0E3B6E2BEC08F049EF07F0340E3B6EAB
:100E4C002BEC08F049EF07F0010E3B6E2BEC08F091
:100E5C0049EF07F03F503D6E3E6A3E50000AD8B451
:100E6C003AEF07F049EF07F03D50010AD8B41EEFF6
:100E7C0007F0030AD8B424EF07F0010AD8B42AEF1C
:100E8C0007F049EF07F012003450D96EDA6ADFCF61
:100E9C00F6FF080EF76E0800F550250AD8A459EF96
:100EAC0007F05BEF07F06DEF07F03450D96EDA6A9C
:100EBC00DF2A000E226E000E216E21C025F0236861
:100ECC0024683450D96EDA6ADF2A80EF07F0345088
:100EDC00D96EDA6ADFCFF6FF080EF76E0800F55010
:100EEC00296E2A6A32C02BF033C02CF0A8EC06F025
:100EFC0067EF07F012003E0E286E800E276E7EEC18
:100F0C0004F0800E3D6E250E3E6E000E3F6E000E00
:100F1C00406EF7EC07F09292D8EC07F00009D8B4C9
:100F2C009AEF07F09CEF07F092EF07F04EEC08F009
:100F3C00266E310E2618D8A4A6EF07F0A8EF07F0FE
:100F4C00A9EF07F08982300E2618D8A4B0EF07F06D
:100F5C00B2EF07F092EF07F0899292EF07F000EFF3
:100F6C0000F038C03AF0C5EF07F036C032F037C0A9
:100F7C0033F03A0E346E39C035F04AEC07F03AC013
:100F8C00F6FF080EF76E0800F5500009D8A4D1EF53
:100F9C0007F0D3EF07F0BBEF07F0000E376E000E33
:100FAC00366E1200ABAEDDEF07F0DFEF07F0E6EFC9
:100FBC0007F0ABB8E4EF07F0E6EF07F0ECEF07F063
:100FCC00030E0DEC07F0000EF6EF07F09EBAF1EFF2
:100FDC0007F0F3EF07F0F5EF07F0E9EF07F0010E7C
:100FEC001200AC98AC844A0EB86E3DC027F03EC0DF
:100FFC0028F03FC029F040C02AF089EC05F0948C11
:10100C00948EAB8EAC8AAB8829EC06F0000E0F01E7
:10101C005D6F1200ABA215EF08F017EF08F01CEF94
:10102C0008F0AB98AB88010E1DEF08F0000E120013
:10103C00ABA423EF08F025EF08F029EF08F0AE5031
:10104C00020E2AEF08F0000E12003C0E3C6E000E51
:10105C00366E000E376E3BC038F03C0E396EB7EC76
:10106C0007F0120000EE01F0260EEE6AE806FDE134
:10107C00000EF86E000181EF07F0276EACA249EF6D
:10108C0008F04BEF08F044EF08F027C0ADFF12005A
:10109C0010EC08F00DEC07F01EEC08F00DEC07F06E
:0E10AC00AE501200286E285043EC08F01200DF
:020000040030CA
:0E00000023095F3CFFD385FF0FC00FE00F40C8
:00000001FF
