:0400000094EF07F082
:100800000062616A612076656C6F6369646164206F
:100810000D0A00616C74612076656C6F63696461B8
:1008200064200D0A00446573686162696C697461D3
:10083000646F200D0A00486162696C697461646FBD
:10084000200D0A00782062617564696F73200D0ABB
:100850000042617564726174653A20005265636597
:1008600070746F723A20004173696E63726F6E6FBD
:1008700020005472616E736F723A200053696E6388
:10088000726F6E6F200050756572746F3A20003180
:100890003620626974732000382062697473200006
:1008A0004D6F646F3A200000000E2E6E28BE64EF7C
:1008B00004F0285006E12704D8B061EF04F064EF9B
:1008C00004F0010E65EF04F0000E2D6ED2B26BEF56
:1008D00004F06EEF04F0010E6FEF04F0000E296ECD
:1008E0002706D8A028062950D8A479EF04F07BEF7A
:1008F00004F090EF04F028BE88EF04F0285006E1E1
:100900002704D8B086EF04F088EF04F066EF04F017
:100910002D50D8B48EEF04F090EF04F066EF04F0A1
:100920002950D8A496EF04F098EF04F09AEF04F061
:10093000010E2E6E2E50D8A4A0EF04F0A2EF04F00A
:10094000D9EF04F0D28A700ED312D3B4AAEF04F018
:10095000ADEF04F0010EAEEF04F0000E2A6E270694
:10096000D8A028062A50D8A4B8EF04F0BAEF04F0B3
:10097000CFEF04F028BEC7EF04F0285006E12704AB
:10098000D8B0C5EF04F0C7EF04F0A5EF04F02D5088
:10099000D8B4CDEF04F0CFEF04F0A5EF04F02A5067
:1009A000D8A4D5EF04F0D7EF04F0D9EF04F0010E8E
:1009B0002E6E2E50D8A4DFEF04F0E1EF04F015EF17
:1009C00005F0D3B6E6EF04F0E9EF04F0010EEAEF2C
:1009D00004F0000E2B6E2706D8A028062B50D8A4B2
:1009E000F4EF04F0F6EF04F00BEF05F028BE03EF90
:1009F00005F0285006E12704D8B001EF05F003EF19
:100A000005F0E1EF04F02D50D8B409EF05F00BEF3D
:100A100005F0E1EF04F02B50D8A411EF05F013EF2F
:100A200005F015EF05F0010E2E6E2E50D8A41BEF29
:100A300005F01DEF05F053EF05F09B8ED288D2BE76
:100A400024EF05F027EF05F0010E28EF05F0000E6A
:100A50002C6E2706D8A028062C50D8A432EF05F01B
:100A600034EF05F049EF05F028BE41EF05F02850BE
:100A700006E12704D8B03FEF05F041EF05F01FEF86
:100A800005F02D50D8B447EF05F049EF05F01FEF02
:100A900005F02C50D8A44FEF05F051EF05F053EFBF
:100AA00005F0010E2E6E2E50D8A459EF05F05BEF25
:100AB00005F05EEF05F0D294FC0ED316120091EF14
:100AC00005F09C0EB06E3F0EAF6EFEEF05F0270EE8
:100AD000B06E0F0EAF6EFEEF05F0130EB06E870E08
:100AE000AF6EFEEF05F0040EB06E7F0EAF6EFEEF40
:100AF00005F0020EB06E700EAF6EFEEF05F0000E48
:100B0000B06ECF0EAF6EFEEF05F0000EB06E670E4A
:100B1000AF6EFEEF05F0040EB06EE10EAF6EFEEFAD
:100B200005F027C02BF028C02CF029C02DF02AC0DA
:100B30002EF02E50000AD8B4F3EF05F08BEF05F03D
:100B40002C50010AD8B4BBEF05F0050AD8B4C2EFA7
:100B500005F00D0AD8B4C9EF05F0210AD8B4D0EFDA
:100B600005F0630AD8B4D7EF05F0AA0AD8B4DEEFCF
:100B700005F08BEF05F02B502C0AD8B461EF05F08F
:100B80008BEF05F02B50B00AD8B467EF05F08BEF70
:100B900005F02B50600AD8B46DEF05F08BEF05F02F
:100BA0002B50B10AD8B473EF05F08BEF05F02B5042
:100BB000000AD8B479EF05F08BEF05F02B50000A4E
:100BC000D8B47FEF05F08BEF05F02C50C20AD8B4F3
:100BD000ECEF05F08BEF05F02B50000AD8B485EF51
:100BE00005F08BEF05F02D50000AD8B4A0EF05F00A
:100BF000010AD8B4E5EF05F08BEF05F01200A00E66
:100C00003B6E87EC07F0ACA808EF06F00AEF06F0A1
:100C100010EF06F07C0E3B6E87EC07F014EF06F049
:100C2000670E3B6E87EC07F0ACA419EF06F01BEFE4
:100C300006F021EF06F0130E3B6E87EC07F025EF70
:100C400006F0010E3B6E87EC07F0510E3B6E87EC11
:100C500007F0B8A62EEF06F030EF06F036EF06F0FC
:100C60008F0E3B6E87EC07F03AEF06F0980E3B6E66
:100C700087EC07F0440E3B6E87EC07F0860E3B6E68
:100C800087EC07F0ABAE47EF06F049EF06F04FEF09
:100C900006F0360E3B6E87EC07F053EF06F0250E9C
:100CA0003B6E87EC07F0720E3B6E87EC07F0ACAA48
:100CB0005CEF06F05EEF06F064EF06F0360E3B6E7A
:100CC00087EC07F068EF06F0250E3B6E87EC07F027
:100CD0005C0E3B6E87EC07F0ABA871EF06F073EF8C
:100CE00006F079EF06F0360E3B6E87EC07F07DEFED
:100CF00006F0250E3B6E87EC07F012002B502C10EF
:100D0000D8B485EF06F087EF06F090EF06F02B5091
:100D10002C10D8A48EEF06F090EF06F095EF06F0B9
:100D20002950AAEC07F0E2EF06F020EE0AF02B5073
:100D3000D9262C50DA22DE50DE10D8B4A2EF06F00D
:100D4000A4EF06F0BFEF06F020EE0AF02B50D926F4
:100D50002C50DA2210EE03F02B50E1262C50E22228
:100D6000DE50E65CE650800A316EDE50800A315873
:100D7000D8B0BDEF06F0BFEF06F0E2EF06F020EED0
:100D800003F02B50D9262C50DA22DECF2DF0DDCF08
:100D90002EF02BC0D9FF2CC0DAFFDECF2FF0DDCF35
:100DA00030F02D502F24D96E2E503020DA6E29C00D
:100DB000DFFF20EE03F02B50D9262C50DA22DE2A5A
:100DC000000EDD2212003450D96EDA6ADFCFF6FF52
:100DD000080EF76E0800F550250AD8A4F2EF06F0C9
:100DE000F4EF06F006EF07F03450D96EDA6ADF2A26
:100DF000000E226E000E216E21C025F023682468AB
:100E00003450D96EDA6ADF2A19EF07F03450D96E00
:100E1000DA6ADFCFF6FF080EF76E0800F550296E8C
:100E20002A6A32C02BF033C02CF07EEC06F000EFC3
:100E300007F012003E0E286E800E276E54EC04F070
:100E4000800E3D6E250E3E6E000E3F6E000E406E13
:100E50006EEC07F092929EAA30EF07F032EF07F0A7
:100E60002BEF07F0AFEC07F0266E310E2618D8A452
:100E70003CEF07F03EEF07F03FEF07F08982300EBE
:100E80002618D8A446EF07F048EF07F02BEF07F03D
:100E900089922BEF07F000EF00F038C03AF05BEFDB
:100EA00007F036C032F037C033F03A0E346E39C036
:100EB00035F0E3EC06F03AC0F6FF080EF76E0800D6
:100EC000F5500009D8A467EF07F069EF07F051EF7C
:100ED00007F0000E376E000E366E1200AC98AC8430
:100EE0004A0EB86E3DC027F03EC028F03FC029F042
:100EF00040C02AF05FEC05F0948C948EAB8EAC8AE7
:100F0000AB88FFEC05F0000E0F015D6F12003C0E88
:100F10003C6E000E366E000E376E3BC038F03C0E55
:100F2000396E4DEC07F0120000EE01F0260EEE6A6D
:100F3000E806FDE1000EF86E00011AEF07F0276EDB
:100F4000ACA2A5EF07F0A7EF07F0A0EF07F027C0CE
:100F5000ADFF1200286E28509FEC07F01200AE5033
:020F600012007D
:020000040030CA
:0E00000023095F3CFFD385FF0FC00FE00F40C8
:00000001FF
