:04000000F2EF39F0F2
:1073B800C9501200016E01C0C9FF1200026E0250CE
:1073C800E7EC39F01200016EACA2EDEF39F0EFEF07
:1073D80039F0E8EF39F001C0ADFF120000EE37F0E8
:1073E800270EEE6AE806FDE1000EF86E000168EF70
:1073F8003AF0240E246E000E186E000E196E21C08D
:107408001AF022C01BF023C01CF0240E1D6E39ECAC
:107418003AF01200AC98AC84B88625C001F026C0BA
:1074280002F027C003F028C004F001EC3CF0948C73
:10743800948EAB8EAC8AAB886AEC3DF01200A00E3D
:10744800286E860E296E010E2A6E000E2B6ED4EC65
:107458003AF0928A938093929396C650F00B0A0959
:10746800C66EC68AC698C68812001AC01EF01BC00F
:107478001FF01CC020F0000E586E000E576E53EF20
:107488003AF018C00CF019C00DF01E0E0E6E1DC09B
:107498000FF0A1EC3CF00C5057260D5058221EC09E
:1074A800F6FF1FC0F7FF20C0F8FF0800F5500009DD
:1074B800D8A461EF3AF063EF3AF045EF3AF0000EE6
:1074C800196E000E186E12003E0E026E800E016ECE
:1074D80067EC3EF0800E256E250E266E000E276E98
:1074E800000E286E0EEC3AF023EC3AF0620EDEEC59
:1074F80039F0FA0E216E7F0E226E21502210D8A488
:10750800000E236EFDEC39F0DCEC39F0346E356A90
:10751800366A34C021F035C022F036C023F0FDECC5
:1075280039F095EF3AF000EF00F0276E2750D8B405
:10753800A0EF3AF0A2EF3AF0A4EF3AF0D3EF3AF026
:10754800E30E216E7F0E226E21502210D8A4000E69
:10755800236EFDEC39F0BEEF3AF0E50E216E7E0E9B
:10756800226E21502210D8A4000E236EFDEC39F0B3
:10757800D3EF3AF02750256E266A2650000AD8B471
:10758800C8EF3AF0D3EF3AF02550000AD8B4D3EF59
:107598003AF0010AD8B4B1EF3AF0D3EF3AF012005A
:1075A800000E016E6C0E026EDC0E036E020E046E8F
:1075B80028C02CF029C02DF02AC02EF02BC02FF0A7
:1075C800020ED8902C362D362E362F36E82EE5EFC3
:1075D8003AF02CC005F02DC006F02EC007F02FC0E1
:1075E80008F07BEC3BF0FF0E0124306EFF0E02200A
:1075F800316EFF0E0320326EFF0E0420336E3350BF
:10760800321008E13104D8A00CEF3BF00EEF3BF04C
:1076180013EF3BF0010E99EC3AF015EF3BF030C058
:10762800C8FF120005500610D8B41DEF3BF01FEF3D
:107638003BF028EF3BF005500610D8A426EF3BF0AE
:1076480028EF3BF02DEF3BF00350E2EC39F07AEFF6
:107658003BF020EE0AF00550D9260650DA22DE501B
:10766800DE10D8B43AEF3BF03CEF3BF057EF3BF07D
:1076780020EE0AF00550D9260650DA2210EE03F063
:107688000550E1260650E222DE50E65CE650800A0C
:107698000B6EDE50800A0B58D8B055EF3BF057EF11
:1076A8003BF07AEF3BF020EE03F00550D926065068
:1076B800DA22DECF07F0DDCF08F005C0D9FF06C01B
:1076C800DAFFDECF09F0DDCF0AF007500924D96EC2
:1076D80008500A20DA6E03C0DFFF20EE03F00550E1
:1076E800D9260650DA22DE2A000EDD221200000E0C
:1076F8000A6E08BE84EF3BF082EF3BF08EEF3BF062
:10770800081E071E061E056C000E06220722082208
:10771800010E0A6E04BE95EF3BF093EF3BF09FEF2E
:107728003BF0041E031E021E016C000E02220322FF
:107738000422010E0A1A000E0B6E000E0C6E000ECB
:107748000D6E000E0E6E0550061007100810D8B406
:10775800B0EF3BF0B2EF3BF0E8EF3BF0010E096E03
:10776800BCEF3BF0D8900536063607360836092AAE
:1077780008AEC1EF3BF0C3EF3BF0B6EF3BF0D8905B
:107788000B360C360D360E360550015C0650025885
:107798000750035808500458D8A0D5EF3BF0D7EF4E
:1077A8003BF0E0EF3BF00550015E0650025A0750EF
:1077B800035A0850045A0B80D89008320732063210
:1077C8000532092EC3EF3BF00A50D8B4EEEF3BF078
:1077D800F0EF3BF0F8EF3BF00E1E0D1E0C1E0B6C8D
:1077E800000E0C220D220E220BC001F00CC002F07C
:1077F8000DC003F00EC004F0120033EF3CF09C0EF5
:10780800B06E3F0EAF6EA0EF3CF0270EB06E0F0EBD
:10781800AF6EA0EF3CF0130EB06E870EAF6EA0EF08
:107828003CF0040EB06E7F0EAF6EA0EF3CF0020E7F
:10783800B06E700EAF6EA0EF3CF0000EB06ECF0EC3
:10784800AF6EA0EF3CF0000EB06E670EAF6EA0EF0B
:107858003CF0040EB06EE10EAF6EA0EF3CF001C03C
:1078680005F002C006F003C007F004C008F0085095
:10787800000AD8B495EF3CF02DEF3CF00650010A11
:10788800D8B45DEF3CF0050AD8B464EF3CF00D0ABB
:10789800D8B46BEF3CF0210AD8B472EF3CF0630A1D
:1078A800D8B479EF3CF0AA0AD8B480EF3CF02DEFB9
:1078B8003CF005502C0AD8B403EF3CF02DEF3CF017
:1078C8000550B00AD8B409EF3CF02DEF3CF0055054
:1078D800600AD8B40FEF3CF02DEF3CF00550B10A28
:1078E800D8B415EF3CF02DEF3CF00550000AD8B4A1
:1078F8001BEF3CF02DEF3CF00550000AD8B421EF07
:107908003CF02DEF3CF00650C20AD8B48EEF3CF0A4
:107918002DEF3CF00550000AD8B427EF3CF02DEFCE
:107928003CF00750000AD8B442EF3CF0010AD8B442
:1079380087EF3CF02DEF3CF012000E50D96EDA6A5A
:10794800DECF10F0DECF11F0DECF12F010C0F6FF60
:1079580011C0F7FF12C0F8FF0800F550250AD8A497
:10796800B8EF3CF0BAEF3CF047EF3DF00E50D96E5F
:10797800DA6ADE2A000EDE22DE22000E5A6E000EC1
:10798800596E59C05DF05B685C680E50D96EDA6A52
:10799800DECF15F0DECF16F0DDCF17F015C0F6FFFD
:1079A80016C0F7FF17C0F8FF0800F5506E0AD8A4F4
:1079B800E0EF3CF0E2EF3CF00EEF3DF00F50D96EF7
:1079C800DA6ADF50DF2AD96EDA6ADF50D96EDA6AEE
:1079D80057C0DEFF58C0DDFF010E106E000E116E9D
:1079E80010501524126E11501620136E000E11BE81
:1079F800FF0E1720146E0E50D96EDA6A12C0DEFF21
:107A080013C0DEFF14C0DEFF000E0D6E000E0C6EFC
:107A180069EF3DF00E50D96EDA6ADECF10F0DECF96
:107A280011F0DECF12F010C0F6FF11C0F7FF12C040
:107A3800F8FF0800F550250AD8A425EF3DF027EFF8
:107A48003DF03EEF3DF00E50D96EDA6ADE2A000EA8
:107A5800DE22DE22000E046E250E036E0CC005F039
:107A68000DC006F016EC3BF0000E0D6E010E0C6E0C
:107A780069EF3DF00E50D96EDA6ADE2A000EDE227A
:107A8800DE2208EF3DF00E50D96EDA6ADECF10F034
:107A9800DECF11F0DECF12F010C0F6FF11C0F7FFF5
:107AA80012C0F8FF0800F550036E046A0CC005F018
:107AB8000DC006F016EC3BF00E50D96EDA6ADE2ADD
:107AC800000EDE22DE2238EF3DF01200F30E216EAA
:107AD8007F0E226E21502210D8A4000E236EFDECDA
:107AE80039F0ACA87AEF3DF07CEF3DF089EF3DF03E
:107AF800C70E216E7F0E226E21502210D8A4000ED0
:107B0800236EFDEC39F094EF3DF0B20E216E7F0E3E
:107B1800226E21502210D8A4000E236EFDEC39F0FD
:107B2800ACA499EF3DF09BEF3DF0A8EF3DF05E0E61
:107B3800216E7F0E226E21502210D8A4000E236ED3
:107B4800FDEC39F0B3EF3DF04C0E216E7F0E226E46
:107B580021502210D8A4000E236EFDEC39F09C0EA3
:107B6800216E7F0E226E21502210D8A4000E236EA3
:107B7800FDEC39F0B8A6C3EF3DF0C5EF3DF0D2EF0C
:107B88003DF0DA0E216E7F0E226E21502210D8A40D
:107B9800000E236EFDEC39F0DDEF3DF0EB0E216EAB
:107BA8007F0E226E21502210D8A4000E236EFDEC09
:107BB80039F08F0E216E7F0E226E21502210D8A42C
:107BC800000E236EFDEC39F0D10E216E7F0E226E71
:107BD80021502210D8A4000E236EFDEC39F0ABAE74
:107BE800F8EF3DF0FAEF3DF007EF3EF0810E216E21
:107BF8007F0E226E21502210D8A4000E236EFDECB9
:107C080039F012EF3EF0700E216E7F0E226E215079
:107C18002210D8A4000E236EFDEC39F0BD0E216EA3
:107C28007F0E226E21502210D8A4000E236EFDEC88
:107C380039F0ACAA22EF3EF024EF3EF031EF3EF0EF
:107C4800810E216E7F0E226E21502210D8A4000EC4
:107C5800236EFDEC39F03CEF3EF0700E216E7F0E86
:107C6800226E21502210D8A4000E236EFDEC39F0AC
:107C7800A70E216E7F0E226E21502210D8A4000E6E
:107C8800236EFDEC39F0ABA84CEF3EF04EEF3EF022
:107C98005BEF3EF0810E216E7F0E226E2150221086
:107CA800D8A4000E236EFDEC39F066EF3EF0700E9E
:107CB800216E7F0E226E21502210D8A4000E236E52
:107CC800FDEC39F01200000E086E02BE77EF3EF0B0
:107CD800025006E10104D8B074EF3EF077EF3EF0B1
:107CE800010E78EF3EF0000E076ED2B27EEF3EF046
:107CF80081EF3EF0010E82EF3EF0000E036E0106AA
:107D0800D8A002060350D8A48CEF3EF08EEF3EF0C8
:107D1800A3EF3EF002BE9BEF3EF0025006E10104E5
:107D2800D8B099EF3EF09BEF3EF079EF3EF0075068
:107D3800D8B4A1EF3EF0A3EF3EF079EF3EF0035048
:107D4800D8A4A9EF3EF0ABEF3EF0ADEF3EF0010E48
:107D5800086E0850D8A4B3EF3EF0B5EF3EF0ECEF54
:107D68003EF0D28A700ED312D3B4BDEF3EF0C0EF0E
:107D78003EF0010EC1EF3EF0000E046E0106D8A0E1
:107D880002060450D8A4CBEF3EF0CDEF3EF0E2EF70
:107D98003EF002BEDAEF3EF0025006E10104D8B030
:107DA800D8EF3EF0DAEF3EF0B8EF3EF00750D8B427
:107DB800E0EF3EF0E2EF3EF0B8EF3EF00450D8A41A
:107DC800E8EF3EF0EAEF3EF0ECEF3EF0010E086E11
:107DD8000850D8A4F2EF3EF0F4EF3EF028EF3FF061
:107DE800D3B6F9EF3EF0FCEF3EF0010EFDEF3EF0AA
:107DF800000E056E0106D8A002060550D8A407EFAC
:107E08003FF009EF3FF01EEF3FF002BE16EF3FF0E4
:107E1800025006E10104D8B014EF3FF016EF3FF02E
:107E2800F4EF3EF00750D8B41CEF3FF01EEF3FF0E0
:107E3800F4EF3EF00550D8A424EF3FF026EF3FF0D2
:107E480028EF3FF0010E086E0850D8A42EEF3FF03F
:107E580030EF3FF066EF3FF09B8ED288D2BE37EF0F
:107E68003FF03AEF3FF0010E3BEF3FF0000E066E99
:107E78000106D8A002060650D8A445EF3FF047EF08
:107E88003FF05CEF3FF002BE54EF3FF0025006E1D6
:107E98000104D8B052EF3FF054EF3FF032EF3FF01B
:107EA8000750D8B45AEF3FF05CEF3FF032EF3FF0A5
:107EB8000650D8A462EF3FF064EF3FF066EF3FF062
:107EC800010E086E0850D8A46CEF3FF06EEF3FF03B
:107ED80071EF3FF0D294FC0ED316120000455252B7
:107EE8004F525F434F44455F5350495F42525F4F83
:107EF80056455252414E4745004552524F525F43F4
:107F08004F44455F554152545F434F4E46494720C1
:107F18000D0A004552524F525F434F44455F554149
:107F280052545F4F564552464C4F57004552524F98
:107F3800525F434F44455F554152545F4652414D4D
:107F4800494E470062616A612076656C6F636964B7
:107F58006164200D0A00616C74612076656C6F6342
:107F680069646164200D0A00446573686162696C24
:107F7800697461646F200D0A00486162696C6974F4
:107F880061646F200D0A00782062617564696F73FF
:107F9800200D0A0042617564726174653A200052CE
:107FA80065636570746F723A20004173696E63721D
:107FB8006F6E6F20005472616E736F723A200053B7
:107FC800696E63726F6E6F200050756572746F3AD8
:107FD80020003136206269747320004572726F7216
:107FE8003A200038206269747320004D6F646F3A3C
:087FF8002000686F6C610000BD
:020000040030CA
:0E00000023095F3CFFD385FF0FC00FE00F40C8
:00000001FF
