:040000006EEF37F078
:106E8400026E025047EC37F01200016EACA24DEFD7
:106E940037F04FEF37F048EF37F001C0ADFF120085
:106EA400016E01C0C9FF9EA65AEF37F05CEF37F0C0
:106EB40055EF37F09E96C9501200260E2A6E000E2A
:106EC4001D6E000E1E6E24C01FF025C020F02A0E79
:106ED400216EC8EC37F0120000EE60F0200EEE6A6E
:106EE400E806FDE1426A416A406A3F6A3E6A000E72
:106EF400F86E00019BEF38F0AC98AC84B8862BC0D8
:106F040001F02CC002F02DC003F02EC004F05CECA4
:106F14003AF0948C948EAB8EAC8AAB88FCEC3AF04D
:106F240012000CBE98EF37F09AEF37F0A0EF37F06D
:106F34000BC00BF00CC00CF0ACEF37F00BC00DF035
:106F44000CC00EF00D1E0E1E0D4A0E2A0DC00BF0C5
:106F54000EC00CF01200600E2E6EEA0E2F6E000EA4
:106F6400306E000E316E59EC38F0929A9380939201
:106F74009396C650F00B0A09C66ECB88C68AC6988B
:106F8400C79CC78E898A9FEC3BF012001FC022F079
:106F940020C023F0D8EF37F01DC00FF01EC010F052
:106FA400220E116E21C012F09FEC3DF022C0F6FFBC
:106FB40023C0F7FF0800F5500009D8A4E4EF37F028
:106FC400E6EF37F0CEEF37F0000E1E6E000E1D6EAA
:106FD4001200000E016E6C0E026EDC0E036E020EC9
:106FE400046EC850136E146AD89013361436D890B1
:106FF40013361436040E1326000E142213C005F0A3
:1070040014C006F0000E06BEFF0E076E086ED6EC26
:1070140039F001C015F002C016F003C017F004C027
:1070240018F015C00FF016C010F017C011F018C0FA
:1070340012F012002D6E2D50D8B423EF38F025EF46
:1070440038F027EF38F058EF38F0BE0E246E7F0E7C
:10705400256E5FEC37F03FEF38F0DB0E246E7D0ECB
:10706400256E5FEC37F058EF38F02C0E246E7E0E50
:10707400256E5FEC37F058EF38F02D502B6E2C6AEC
:107084002C50000AD8B449EF38F058EF38F02B50A0
:10709400000AD8B458EF38F0010AD8B42FEF38F00A
:1070A400030AD8B437EF38F058EF38F01200000E66
:1070B400016E6C0E026EDC0E036E020E046E2EC0A8
:1070C40032F02FC033F030C034F031C035F0020E4E
:1070D400D8903236333634363536E82E6AEF38F007
:1070E40032C005F033C006F034C007F035C008F0F4
:1070F400D6EC39F0FF0E0124366EFF0E0220376EF7
:10710400FF0E0320386EFF0E0420396E39503810FC
:1071140008E13704D8A091EF38F093EF38F098EFF6
:1071240038F0010E1CEC38F09AEF38F036C0C8FF86
:1071340012003E0E026E800E016E94EC3CF0800E46
:107144002B6E250E2C6E000E2D6E000E2E6E7EEC18
:1071540037F0ADEC37F0929289821F0E3B6E710EC0
:107164003A6E1E0EE82EFED73A2EFCD73B2EFAD7E7
:1071740000D089921F0E3B6E710E3A6E1E0EE82EE1
:10718400FED73A2EFCD73B2EFAD700D089821F0EA9
:107194003B6E710E3A6E1E0EE82EFED73A2EFCD7C9
:1071A4003B2EFAD700D089921F0E3B6E710E3A6EB9
:1071B4001E0EE82EFED73A2EFCD73B2EFAD700D06F
:1071C400000E3D6E89923D5052EC37F03C6E898240
:1071D4003C283D6E3D0E3B6EE10E3A6E400EE82EAD
:1071E400FED73A2EFCD73B2EFAD7E4EF38F000EF67
:1071F40000F005500610D8B402EF39F004EF39F06E
:107204000DEF39F005500610D8A40BEF39F00DEF4F
:1072140039F012EF39F0035042EC37F05FEF39F0F8
:1072240020EE0AF00550D9260650DA22DE50DE1090
:10723400D8B41FEF39F021EF39F03CEF39F020EEEC
:107244000AF00550D9260650DA2210EE03F0055054
:10725400E1260650E222DE50E65CE650800A0B6E20
:10726400DE50800A0B58D8B03AEF39F03CEF39F0D1
:107274005FEF39F020EE03F00550D9260650DA22EC
:10728400DECF07F0DDCF08F005C0D9FF06C0DAFF76
:10729400DECF09F0DDCF0AF007500924D96E08507B
:1072A4000A20DA6E03C0DFFF20EE03F00550D92672
:1072B4000650DA22DE2A000EDD221200000E0A6ECB
:1072C40004BE69EF39F067EF39F073EF39F0041E4B
:1072D400031E021E016C000E022203220422010E70
:1072E4000A6E08BE7AEF39F078EF39F082EF39F0A0
:1072F400081E071E061E056C000E06220722082221
:107304000550061007100810D8B48BEF39F08DEF34
:1073140039F0BDEF39F0010E096E97EF39F0D890CE
:107324000536063607360836092A08AE9CEF39F0CA
:107334009EEF39F091EF39F00550015C0650025888
:107344000750035808500458D8A0ABEF39F0ADEFFC
:1073540039F0B5EF39F00550015E0650025A075076
:10736400035A0850045AD8900832073206320532BC
:10737400092E9EEF39F00A50D8B4C3EF39F0C5EFA7
:1073840039F0CDEF39F0041E031E021E016C000E0D
:1073940002220322042201C001F002C002F003C051
:1073A40003F004C004F01200000E0A6E08BEDFEF02
:1073B40039F0DDEF39F0E9EF39F0081E071E061E3B
:1073C400056C000E062207220822010E0A6E04BE76
:1073D400F0EF39F0EEEF39F0FAEF39F0041E031E46
:1073E400021E016C000E022203220422010E0A1A5C
:1073F400000E0B6E000E0C6E000E0D6E000E0E6E67
:107404000550061007100810D8B40BEF3AF00DEF32
:107414003AF043EF3AF0010E096E17EF3AF0D890C4
:107424000536063607360836092A08AE1CEF3AF048
:107434001EEF3AF011EF3AF0D8900B360C360D36B9
:107444000E360550015C0650025807500358085088
:107454000458D8A030EF3AF032EF3AF03BEF3AF06C
:107464000550015E0650025A0750035A0850045A48
:107474000B80D8900832073206320532092E1EEFEF
:107484003AF00A50D8B449EF3AF04BEF3AF053EFE0
:107494003AF00E1E0D1E0C1E0B6C000E0C220D225B
:1074A4000E220BC001F00CC002F00DC003F00EC0A0
:1074B40004F012008EEF3AF09C0EB06E3F0EAF6EE9
:1074C400FBEF3AF0270EB06E0F0EAF6EFBEF3AF003
:1074D400130EB06E870EAF6EFBEF3AF0040EB06E73
:1074E4007F0EAF6EFBEF3AF0020EB06E700EAF6E11
:1074F400FBEF3AF0000EB06ECF0EAF6EFBEF3AF03A
:10750400000EB06E670EAF6EFBEF3AF0040EB06E75
:10751400E10EAF6EFBEF3AF001C005F002C006F0D9
:1075240003C007F004C008F00850000AD8B4F0EF14
:107534003AF088EF3AF00650010AD8B4B8EF3AF0BE
:10754400050AD8B4BFEF3AF00D0AD8B4C6EF3AF042
:10755400210AD8B4CDEF3AF0630AD8B4D4EF3AF0A4
:10756400AA0AD8B4DBEF3AF088EF3AF005502C0AB7
:10757400D8B45EEF3AF088EF3AF00550B00AD8B4C8
:1075840064EF3AF088EF3AF00550600AD8B46AEF35
:107594003AF088EF3AF00550B10AD8B470EF3AF0F7
:1075A40088EF3AF00550000AD8B476EF3AF088EF45
:1075B4003AF00550000AD8B47CEF3AF088EF3AF07C
:1075C4000650C20AD8B4E9EF3AF088EF3AF0055011
:1075D400000AD8B482EF3AF088EF3AF00750000A74
:1075E400D8B49DEF3AF0010AD8B4E2EF3AF088EF4C
:1075F4003AF01200D50E246E7F0E256E5FEC37F044
:10760400ACA807EF3BF009EF3BF011EF3BF0900E15
:10761400246E7F0E256E5FEC37F017EF3BF07B0E88
:10762400246E7F0E256E5FEC37F0ACA41CEF3BF0AC
:107634001EEF3BF026EF3BF09F0E246E7E0E256E70
:107644005FEC37F02CEF3BF08D0E246E7E0E256E32
:107654005FEC37F0650E246E7F0E256E5FEC37F01D
:10766400B8A637EF3BF039EF3BF041EF3BF0B50EF6
:10767400246E7F0E256E5FEC37F047EF3BF0C60EAD
:10768400246E7F0E256E5FEC37F0420E246E7F0E63
:10769400256E5FEC37F0AC0E246E7F0E256E5FEC2A
:1076A40037F0ABAE58EF3BF05AEF3BF062EF3BF0F4
:1076B400340E246E7F0E256E5FEC37F068EF3BF0DE
:1076C400D30E246E7E0E256E5FEC37F0860E246E8C
:1076D4007F0E256E5FEC37F0ACAA73EF3BF075EFCD
:1076E4003BF07DEF3BF0340E246E7F0E256E5FEC95
:1076F40037F083EF3BF0D30E246E7E0E256E5FECE5
:1077040037F0700E246E7F0E256E5FEC37F0ABA859
:107714008EEF3BF090EF3BF098EF3BF0340E246E8D
:107724007F0E256E5FEC37F09EEF3BF0D30E246E98
:107734007E0E256E5FEC37F01200760E246E7E0E00
:10774400256E5FEC37F0B10E246E7E0E256E5FEC75
:1077540037F0DC0E246E7F0E256EEBEC37F00FC095
:1077640026F010C027F011C028F012C029F05FECF9
:1077740037F0E80E246E7F0E256E5FEC37F093A091
:10778400C6EF3BF0C8EF3BF0D0EF3BF09A0E246E0F
:107794007F0E256E5FEC37F0D6EF3BF0A30E246E20
:1077A4007F0E256E5FEC37F0F40E246E7F0E256E8F
:1077B4005FEC37F093A6E1EF3BF0E3EF3BF0EBEF48
:1077C4003BF09A0E246E7F0E256E5FEC37F0F1EFDE
:1077D4003BF0A30E246E7F0E256E5FEC37F0EE0EA9
:1077E400246E7F0E256E5FEC37F093A2FCEF3BF026
:1077F400FEEF3BF006EF3CF09A0E246E7F0E256EF2
:107804005FEC37F00CEF3CF0A30E246E7F0E256E78
:107814005FEC37F0FA0E246E7F0E256E5FEC37F0C6
:1078240092AA17EF3CF019EF3CF021EF3CF09A0ECE
:10783400246E7F0E256E5FEC37F027EF3CF0A30E2D
:10784400246E7F0E256E5FEC37F0140E246E7F0ECF
:10785400256E5FEC37F0C6AA32EF3CF034EF3CF013
:107864003CEF3CF0070E246E7F0E256E5FEC37F084
:1078740042EF3CF0040E246E7F0E256E5FEC37F071
:10788400C20E246E7E0E256E5FEC37F0C6A84DEF57
:107894003CF04FEF3CF057EF3CF0CE0E246E7F0EE1
:1078A400256E5FEC37F05DEF3CF0E20E246E7F0E48
:1078B400256E5FEC37F0240E246E7F0E256E5FEC90
:1078C40037F0C7AC68EF3CF06AEF3CF072EF3CF085
:1078D400E40E246E7E0E256E5FEC37F078EF3CF0FC
:1078E400F40E246E7E0E256E5FEC37F0F70E246ED8
:1078F4007D0E256E5FEC37F0C7AE83EF3CF085EF6D
:107904003CF08DEF3CF04F0E246E7F0E256E5FEC45
:1079140037F093EF3CF05A0E246E7F0E256E5FEC29
:1079240037F01200000E086E02BEA4EF3CF00250C5
:1079340006E10104D8B0A1EF3CF0A4EF3CF0010E45
:10794400A5EF3CF0000E076ED2B2ABEF3CF0AEEF09
:107954003CF0010EAFEF3CF0000E036E0106D8A020
:1079640002060350D8A4B9EF3CF0BBEF3CF0D0EFD3
:107974003CF002BEC8EF3CF0025006E10104D8B06E
:10798400C6EF3CF0C8EF3CF0A6EF3CF00750D8B48B
:10799400CEEF3CF0D0EF3CF0A6EF3CF00350D8A47F
:1079A400D6EF3CF0D8EF3CF0DAEF3CF0010E086E75
:1079B4000850D8A4E0EF3CF0E2EF3CF019EF3DF0C2
:1079C400D28A700ED312D3B4EAEF3CF0EDEF3CF060
:1079D400010EEEEF3CF0000E046E0106D8A0020684
:1079E4000450D8A4F8EF3CF0FAEF3CF00FEF3DF070
:1079F40002BE07EF3DF0025006E10104D8B005EFE6
:107A04003DF007EF3DF0E5EF3CF00750D8B40DEF43
:107A14003DF00FEF3DF0E5EF3CF00450D8A415EF36
:107A24003DF017EF3DF019EF3DF0010E086E0850E0
:107A3400D8A41FEF3DF021EF3DF055EF3DF0D3B654
:107A440026EF3DF029EF3DF0010E2AEF3DF0000E48
:107A5400056E0106D8A002060550D8A434EF3DF007
:107A640036EF3DF04BEF3DF002BE43EF3DF00250E8
:107A740006E10104D8B041EF3DF043EF3DF021EFC2
:107A84003DF00750D8B449EF3DF04BEF3DF021EF06
:107A94003DF00550D8A451EF3DF053EF3DF055EFC4
:107AA4003DF0010E086E0850D8A45BEF3DF05DEF89
:107AB4003DF093EF3DF09B8ED288D2BE64EF3DF053
:107AC40067EF3DF0010E68EF3DF0000E066E010613
:107AD400D8A002060650D8A472EF3DF074EF3DF032
:107AE40089EF3DF002BE81EF3DF0025006E1010452
:107AF400D8B07FEF3DF081EF3DF05FEF3DF00750F0
:107B0400D8B487EF3DF089EF3DF05FEF3DF00650CC
:107B1400D8A48FEF3DF091EF3DF093EF3DF0010ECF
:107B2400086E0850D8A499EF3DF09BEF3DF09EEF0E
:107B34003DF0D294FC0ED31612001150D96EDA6ABD
:107B4400DECFF6FFDDCFF7FF0800F550250AD8A4F5
:107B5400AEEF3DF0B0EF3DF0D9EF3EF01150D96EED
:107B6400DA6ADE2A000EDD22000E3F6E000E3E6E43
:107B74003EC042F0406841681150D96EDA6ADECFE7
:107B840016F0DDCF17F016C0F6FF17C0F7FF080098
:107B9400F5CF1CF0DAEF3DF0164A172AE9EF3DF075
:107BA400690E1C6EE9EF3DF0000E1C6EE9EF3DF02E
:107BB4001C50640AD8B4D2EF3DF00D0AD8B4D2EF09
:107BC4003DF0050AD8B4CEEF3DF0D6EF3DF016C037
:107BD400F6FF17C0F7FF0800F550640AD8B4F5EFB4
:107BE4003DF0F7EF3DF02CEF3EF016C0F6FF17C066
:107BF400F7FF0800F550690AD8A403EF3EF005EF3B
:107C04003EF0D1EF3EF02CEF3EF01250D96EDA6A1E
:107C1400DF50DF2ADF2AD96EDA6ADECF18F0DDCF33
:107C240019F0000E19BEFF0E1A6E1B6E37EF3EF0F0
:107C34001250D96EDA6A040EDF26DF5CD96EDA6A76
:107C4400DECF18F0DECF19F0DECF1AF0DECF1BF056
:107C540037EF3EF01C50690AD8B407EF3EF0050A2E
:107C6400D8B41AEF3EF037EF3EF0010E1624136E2F
:107C7400000E1720146E1150D96EDA6A13C0DEFF9D
:107C840014C0DDFF200E1C6E1BBE4BEF3EF04EEF0A
:107C94003EF0010E4FEF3EF0000E156E1C061C5018
:107CA400600FD96EDA6A18C001F019C002F01AC068
:107CB40003F01BC004F00A0E056E000E066E000EE3
:107CC400076E000E086E60EC39F001C00BF002C0C4
:107CD4000CF093EC37F00B50300FDF6E18C001F04E
:107CE40019C002F01AC003F01BC004F00A0E056E9E
:107CF400000E066E000E076E000E086ED6EC39F00C
:107D040001C018F002C019F003C01AF004C01BF03F
:107D1400185019101A101B10D8B493EF3EF095EFB9
:107D24003EF09DEF3EF01C50D8A49BEF3EF09DEF3B
:107D34003EF050EF3EF01C50D8B4A3EF3EF0A5EF58
:107D44003EF0C6EF3EF01550D8B4ABEF3EF0ADEFC9
:107D54003EF0C6EF3EF01C061C50600FD96EDA6A86
:107D64002D0EDF6EC6EF3EF01C50600FD96EDA6A3E
:107D7400DF50136E1350036E046A0FC005F010C079
:107D840006F0FBEC38F01C2A200E1C18D8A4CDEF0A
:107D94003EF0CFEF3EF0B6EF3EF0ECEF3EF0115088
:107DA400D96EDA6ADE2A000EDD22ECEF3EF01150C5
:107DB400D96EDA6ADECFF6FFDDCFF7FF0800F550A3
:107DC400036E046A0FC005F010C006F0FBEC38F037
:107DD400D1EF3EF01200004552524F525F434F44E0
:107DE400455F5350495F42525F4F56455252414E90
:107DF4004745004D75657374726120646520646144
:107E0400746F20656E7472616E74653A2000455219
:107E1400524F525F434F44455F554152545F434F65
:107E24004E464947200D0A004552524F525F434F78
:107E340044455F5350495F434F4C4C4953494F4E5F
:107E4400004552524F525F434F44455F554152548F
:107E54005F4F564552464C4F57004552524F525F62
:107E6400434F44455F554152545F4652414D494E3C
:107E740047000D0A436F6E66696775726163696FC7
:107E84006E205350493A0D0A0062616A612076659A
:107E94006C6F6369646164200D0A00616C74612015
:107EA40076656C6F6369646164200D0A00467265CF
:107EB4006375656E636961205350493A2000506FC1
:107EC4006C6172696461643A2049646C65200044A1
:107ED4006573686162696C697461646F200D0A007E
:107EE40061637469766520612069646C650D0A00BC
:107EF40069646C652061206163746976650D0A00AC
:107F0400646573686162696C697461646F0D0A0009
:107F140050756572746F2073657269616C3A2000E4
:107F24005472616E736D6973696F6E20656E2000A3
:107F3400486162696C697461646F200D0A0078207D
:107F440062617564696F73200D0A00616C20666953
:107F54006E616C0D0A00656E206D6564696F0D0AB3
:107F64000042617564726174653A2000526563650C
:107F740070746F723A20004173696E63726F6E6F32
:107F840020005472616E736F723A200053696E63FD
:107F9400726F6E6F2000496E707574200D09004F6A
:107FA40075747075740D090050756572746F3A209C
:107FB400003136206269747320004572726F723A20
:107FC40020003820626974732000686967680D0AAC
:107FD400004D6F646F3A2000256C640D0A006C6FCD
:107FE400770D0A005344493A200053434B3A20008A
:0C7FF40053444F3A200053533A20000041
:020000040030CA
:0E00000023095F3CFFD385FF0FC00FE00F40C8
:00000001FF
