:04000000D0EF35F018
:10693200A17FF67FBF7F026E0250ABEC34F01200F3
:10694200DBEC34F0B6EC36F0C1EC34F0B6EC36F0F9
:10695200AE501200016EACA2B1EF34F0B3EF34F0DE
:10696200ACEF34F001C0ADFF1200D40E236E7D0EE9
:10697200246EE9EC34F0F8EC34F0000E3E6E1200B6
:10698200ABA4C6EF34F0C8EF34F0CCEF34F0AE5025
:10699200020ECDEF34F0000E12003F063F50600FA2
:1069A200D96EDA6ADF6AFB0E236E7F0E246EE9EC83
:1069B20034F01200ABA2E0EF34F0E2EF34F0E7EF94
:1069C20034F0AB98AB88010EE8EF34F0000E120001
:1069D200250E296E000E1C6E000E1D6E23C01EF0C9
:1069E20024C01FF0290E206EADEC35F01200000E0F
:1069F200016E0150600FD96EDA6ADF6A012A630EF6
:106A0200016406EF35F008EF35F0FAEF34F0000ECE
:106A12003F6E1200000E046E17EF35F00450012491
:106A2200D96E000E0220DA6EDF6A042A0350045C7B
:106A3200D8A01EEF35F020EF35F00FEF35F0120041
:106A4200F8EC34F0400E016E026A100E036E0BEC8D
:106A520035F0000E016E010E026E500E036E0BEC4D
:106A620035F0F10E236E7F0E246EE9EC34F0120045
:106A7200AC98AC844A0EB86E2AC001F02BC002F06A
:106A82002CC003F02DC004F0EEEC39F0948C948EFF
:106A9200AB8EAC8AAB888EEC3AF0000E0F015D6FC4
:106AA200120008BE57EF35F059EF35F05FEF35F0C1
:106AB20007C007F008C008F06BEF35F007C009F017
:106AC20008C00AF0091E0A1E094A0A2A09C007F06C
:106AD2000AC008F01200ABAE71EF35F073EF35F07B
:106AE2007AEF35F0ABB878EF35F07AEF35F080EF2A
:106AF20035F0030EB6EC36F0000E8AEF35F09EBA92
:106B020085EF35F087EF35F089EF35F07DEF35F021
:106B1200010E1200AB0E236E7E0E246EE9EC34F0F1
:106B2200000E2A6EF40E236E7E0E246E2A50020D83
:106B3200F350500FD96EDA6ADECF25F0DDCF26F0A2
:106B4200E9EC34F02A2A020E2A64AAEF35F0ACEFFF
:106B520035F093EF35F012001EC021F01FC022F075
:106B6200BDEF35F01CC00CF01DC00DF0210E0E6EF5
:106B720020C00FF0F3EC3CF021C0F6FF22C0F7FF7B
:106B82000800F5500009D8A4C9EF35F0CBEF35F075
:106B9200B3EF35F0000E1D6E000E1C6E1200320EA9
:106BA200F66E690EF76E000EF86E00EE50F010EE03
:106BB20006F00900F5CFEEFFE550E150FAE101EEF3
:106BC20000F0500EEE6AE806FDE100EE60F0840E81
:106BD200EE6AE806FDE100EE38F0180EEE6AE8060D
:106BE200FDE1000EF86E0001F7EF35F03E0E026E89
:106BF200800E016EE8EC3BF0800E2A6E250E2B6EA5
:106C0200000E2C6E000E2D6E39EC35F01FEC36F0B6
:106C12006CEC35F00009D8B411EF36F013EF36F012
:106C220017EF36F0A1EC34F0B5EC37F037EC3BF06F
:106C32007EEC38F009EF36F000EF00F0F80E236E2C
:106C42007D0E246EE9EC34F0690E236E7F0E246E05
:106C5200E9EC34F0630E236E7D0E246EE9EC34F021
:106C6200AF0E236E7D0E246EE9EC34F0890E236E96
:106C72007D0E246EE9EC34F0310E236E7D0E246E0F
:106C8200E9EC34F0F8EC34F0010E3E6EF10E236EB6
:106C92007F0E246EE9EC34F0120053EF36F0012A35
:106CA200024A032A0150D96EDA6ADF50046E02C02A
:106CB200F6FF03C0F7FF0800F5500418D8A464EFEC
:106CC20036F066EF36F071EF36F00150D96EDA6ABF
:106CD200DF50D8A46FEF36F071EF36F050EF36F098
:106CE2000150D96EDA6ADF50046E02C0F6FF03C0AB
:106CF200F7FF0800F550045C016E026AD8A0020694
:106D02001200000E016E60C003F00350D8B48CEF85
:106D120036F08EEF36F08FEF36F0012A000E026E5B
:106D2200A4EF36F00250600FD96EDA6ADF50036EBC
:106D3200200E0318D8A4A0EF36F0A2EF36F0A3EF8E
:106D420036F0012A022A640E0260AAEF36F0ACEF96
:106D520036F0B4EF36F00350D8A4B2EF36F0B4EF09
:106D620036F093EF36F0015012002C6E2C50D8A45E
:106D7200BDEF36F0BFEF36F0C1EF36F0FAEF36F086
:106D8200DA0E236E7F0E246EE9EC34F0E1EF36F07A
:106D9200150E236E7E0E246EE9EC34F0FAEF36F017
:106DA2004A0E236E7E0E246EE9EC34F0FAEF36F0D2
:106DB200300E236E7E0E246EE9EC34F0FAEF36F0DC
:106DC2002C502A6E2B6A2B50000AD8B4EBEF36F007
:106DD200FAEF36F02A50010AD8B4C9EF36F0030AA6
:106DE200D8B4D1EF36F0010AD8B4D9EF36F0FAEFC1
:106DF20036F01200000E066E02BE04EF37F002EF0C
:106E020037F00AEF37F0016C021ED8B0022A010EE9
:106E1200066E04BE11EF37F00FEF37F015EF37F0C3
:106E2200036C041ED8B0042A03500410D8B41CEF1B
:106E320037F01EEF37F042EF37F0010E056E26EF06
:106E420037F0D89003360436052A04AE2BEF37F01C
:106E52002DEF37F022EF37F00350015C0450025857
:106E6200D8A036EF37F038EF37F03CEF37F0035069
:106E7200015E0450025AD89004320332052E2DEFDF
:106E820037F00650D8B448EF37F04AEF37F04EEFFC
:106E920037F0016C021ED8B0022A01C001F002C014
:106EA20002F01200000E066E04BE5CEF37F05AEFDD
:106EB20037F062EF37F0036C041ED8B0042A010EDB
:106EC200066E02BE69EF37F067EF37F06FEF37F00B
:106ED200016C021ED8B0022A010E061A000E086EBC
:106EE200000E076E03500410D8B47AEF37F07CEF2F
:106EF20037F0A4EF37F0010E056E84EF37F0D8902B
:106F020003360436052A04AE89EF37F08BEF37F0EB
:106F120080EF37F0D890073608360350015C0450F2
:106F22000258D8A097EF37F099EF37F09EEF37F07D
:106F32000350015E0450025A0780D8900432033293
:106F4200052E8BEF37F00650D8B4AAEF37F0ACEF2E
:106F520037F0B0EF37F0076C081ED8B0082A07C028
:106F620001F008C002F012002D6E3E50D8B4BCEF02
:106F720037F0BEEF37F018EF38F005EF38F0010EBA
:106F82003D6EF50E236E7D0E246EE9EC34F018EFA3
:106F920038F03F50D8B4D0EF37F0D2EF37F018EFD7
:106FA20038F0CEEC34F018EF38F0CEEC34F03F503D
:106FB200D8A4DEEF37F0E0EF37F0D6EF37F018EF76
:106FC20038F0630E3F64E8EF37F0EAEF37F0EFEFA7
:106FD20037F0010E7EEC38F018EF38F07F0E2D649A
:106FE200F5EF37F0F7EF37F0F9EF37F018EF38F049
:106FF2003F50600FD96EDA6A2DC0DFFF3F2A2D5055
:10700200ABEC34F018EF38F02D50000AD8B418EF7A
:1070120038F00A0AD8B4C0EF37F0110AD8B4D8EF62
:1070220037F0640AD8B4CAEF37F0E2EF37F0120053
:1070320005500610D8B420EF38F022EF38F02BEFCD
:1070420038F005500610D8A429EF38F02BEF38F0AD
:1070520030EF38F003509CEC34F07DEF38F020EE46
:107062000AF00550D9260650DA22DE50DE10D8B4D6
:107072003DEF38F03FEF38F05AEF38F020EE0AF0EB
:107082000550D9260650DA2210EE03F00550E1260B
:107092000650E222DE50E65CE650800A0B6EDE50BD
:1070A200800A0B58D8B058EF38F05AEF38F07DEF1D
:1070B20038F020EE03F00550D9260650DA22DECF52
:1070C20007F0DDCF08F005C0D9FF06C0DAFFDECF3A
:1070D20009F0DDCF0AF007500924D96E08500A20C2
:1070E200DA6E03C0DFFF20EE03F00550D92606500A
:1070F200DA22DE2A000EDD2212002C6EBDEF38F0FD
:10710200D30E236E7E0E246EE9EC34F021EC35F0C2
:10711200E6EF38F0F90E236E7E0E246EE9EC34F0C1
:1071220021EC35F0E6EF38F0C00E236E7E0E246EB1
:10713200E9EC34F021EC35F0E6EF38F0940E236EF2
:107142007E0E246EE9EC34F021EC35F0E6EF38F0F7
:10715200640E236E7E0E246EE9EC34F021EC35F0E1
:10716200E6EF38F07D0E236E7E0E246EE9EC34F0ED
:1071720021EC35F0E6EF38F02C502A6E2B6A2B50BA
:10718200000AD8B4C7EF38F0E6EF38F02A50000A08
:10719200D8B4E6EF38F0010AD8B481EF38F0030A28
:1071A200D8B48BEF38F0010AD8B495EF38F0070A5B
:1071B200D8B49FEF38F0010AD8B4A9EF38F0030A27
:1071C200D8B4B3EF38F0E6EF38F012002D6E000EAF
:1071D2002F6E000E2E6E400E016E2E50020DF350D9
:1071E200500FD96EDA6ADECF02F0DDCF03F04EEC3B
:1071F20036F001500210D8A401EF39F003EF39F054
:1072020043EF39F02D0E2E24F66E7D0E2F20F76EF1
:107212000800F5502D18D8B411EF39F013EF39F0FA
:1072220026EF39F0050E54EF39F0B6EC34F040EFAA
:1072320039F08BEC35F040EF39F0750E236E7F0E8E
:10724200246EE9EC34F040EF39F02EC02BF02FC061
:107252002CF02C50000AD8B431EF39F040EF39F05D
:107262002B50000AD8B416EF39F0010AD8B41AEF3D
:1072720039F0030AD8B41EEF39F040EF39F0000EAE
:1072820054EF39F02E4A2F2A2FBE51EF39F02F50EA
:1072920009E1030E2E5CD8A051EF39F053EF39F01B
:1072A200ECEF38F0060E1200156E000E146E000E92
:1072B200176E000E166E000E1A6E1550D8A464EFEB
:1072C20039F066EF39F068EF39F0010E176E1A5097
:1072D200600FD96EDA6A200EDE18D8A473EF39F087
:1072E20075EF39F08AEF39F01750D8A47BEF39F0F7
:1072F2007DEF39F08AEF39F0142A15501418D8A40A
:1073020085EF39F087EF39F08AEF39F0010E176E09
:107312001A2A1750D8B490EF39F092EF39F0B8EF3B
:1073220039F01A50600FD96EDA6A200EDE18D8B41E
:107332009DEF39F09FEF39F0C1EF39F01A50600F2D
:10734200D96EDA6ADF50D8A4A9EF39F0ABEF39F081
:10735200ADEF39F0C1EF39F01A50600FD96EDA6A29
:107362001650040FE16EE26ADFCFE7FF162A1A2AEF
:10737200630E1A64BFEF39F0C1EF39F05EEF39F0F6
:10738200100E1664C7EF39F0C9EF39F0CCEF39F0BF
:10739200010EEDEF39F0000E196E000E186E185046
:1073A200040FD96EDA6A18500124E16E19500220D6
:1073B200E26EDFCFE7FF184A192A19BEEAEF39F069
:1073C200195009E1100E185CD8A0EAEF39F0ECEF81
:1073D20039F0D0EF39F0000E120020EF3AF09C0E97
:1073E200B06E3F0EAF6E8DEF3AF0270EB06E0F0EFD
:1073F200AF6E8DEF3AF0130EB06E870EAF6E8DEF5B
:107402003AF0040EB06E7F0EAF6E8DEF3AF0020EC0
:10741200B06E700EAF6E8DEF3AF0000EB06ECF0E02
:10742200AF6E8DEF3AF0000EB06E670EAF6E8DEF5D
:107432003AF0040EB06EE10EAF6E8DEF3AF001C07D
:1074420005F002C006F003C007F004C008F00850BF
:10745200000AD8B482EF3AF01AEF3AF00650010A65
:10746200D8B44AEF3AF0050AD8B451EF3AF00D0A0F
:10747200D8B458EF3AF0210AD8B45FEF3AF0630A71
:10748200D8B466EF3AF0AA0AD8B46DEF3AF01AEF20
:107492003AF005502C0AD8B4F0EF39F01AEF3AF06E
:1074A2000550B00AD8B4F6EF39F01AEF3AF00550A9
:1074B200600AD8B4FCEF39F01AEF3AF00550B10A7D
:1074C200D8B402EF3AF01AEF3AF00550000AD8B4F5
:1074D20008EF3AF01AEF3AF00550000AD8B40EEF6E
:1074E2003AF01AEF3AF00650C20AD8B47BEF3AF0FB
:1074F2001AEF3AF00550000AD8B414EF3AF01AEF36
:107502003AF00750000AD8B42FEF3AF0010AD8B483
:1075120074EF3AF01AEF3AF01200EA0E236E7F0E81
:10752200246EE9EC34F0ACA899EF3AF09BEF3AF014
:10753200A3EF3AF0B50E236E7F0E246EE9EC34F021
:10754200A9EF3AF0960E236E7F0E246EE9EC34F02A
:10755200ACA4AEEF3AF0B0EF3AF0B8EF3AF01D0E4D
:10756200236E7F0E246EE9EC34F0BEEF3AF00B0E80
:10757200236E7F0E246EE9EC34F0800E236E7F0EB4
:10758200246EE9EC34F0B8A6C9EF3AF0CBEF3AF04A
:10759200D3EF3AF0D10E236E7F0E246EE9EC34F075
:1075A200D9EF3AF0E20E236E7F0E246EE9EC34F04E
:1075B2005C0E236E7F0E246EE9EC34F0C80E236E4F
:1075C2007F0E246EE9EC34F0ABAEEAEF3AF0ECEF6A
:1075D2003AF0F4EF3AF04E0E236E7F0E246EE9EC91
:1075E20034F0FAEF3AF02F0E236E7F0E246EE9ECA0
:1075F20034F0AB0E236E7F0E246EE9EC34F0ACAAAD
:1076020005EF3BF007EF3BF00FEF3BF04E0E236E22
:107612007F0E246EE9EC34F015EF3BF02F0E236E53
:107622007F0E246EE9EC34F08B0E236E7F0E246EF7
:10763200E9EC34F0ABA820EF3BF022EF3BF02AEF6D
:107642003BF04E0E236E7F0E246EE9EC34F030EFE9
:107652003BF02F0E236E7F0E246EE9EC34F0F30E16
:10766200236E7D0E246EE9EC34F012003D50D8A456
:107672003DEF3BF03FEF3BF042EF3BF0000EE7EF18
:107682003BF0000E3D6E000E376E82EC36F0356E2A
:107692003550D8A44FEF3BF051EF3BF053EF3BF0A6
:1076A200020E376E050E356459EF3BF05BEF3BF08F
:1076B2005DEF3BF0040E376E3750D8A463EF3BF01A
:1076C20065EF3BF088EF3BF03550D8B46BEF3BF001
:1076D2006DEF3BF088EF3BF0400E016E026A000E48
:1076E20055EC39F00009D8B479EF3BF07BEF3BF071
:1076F2007FEF3BF0030E376E88EF3BF0400E236EB8
:107702007F0E246E400E256E266AE9EC34F0375067
:10771200D8A48EEF3BF090EF3BF0D8EF3BF0000E99
:10772200366EC0EF3BF03650100D000EF324016EA2
:10773200010EF420026E362855EC39F00009D8B457
:10774200A5EF3BF0A7EF3BF0ABEF3BF0030E376E3C
:10775200D8EF3BF0E60E236E7E0E246E010E362429
:10776200256E266A000E26223650100D000EF324D6
:10777200276E010EF420286EE9EC34F0362AFF0E53
:107782003524306E316AFF0E31223650326E336A42
:107792003050325C3350800A346E3150800A345893
:1077A200D8A0D6EF3BF0D8EF3BF094EF3BF0375048
:1077B200D8A4DEEF3BF0E0EF3BF0E4EF3BF0350422
:1077C200E7EC38F0376E21EC35F037501200000E3E
:1077D200086E02BEF8EF3BF0025006E10104D8B099
:1077E200F5EF3BF0F8EF3BF0010EF9EF3BF0000E46
:1077F200076ED2B2FFEF3BF002EF3CF0010E03EF57
:107802003CF0000E036E0106D8A002060350D8A475
:107812000DEF3CF00FEF3CF024EF3CF002BE1CEF0A
:107822003CF0025006E10104D8B01AEF3CF01CEF24
:107832003CF0FAEF3BF00750D8B422EF3CF024EFD3
:107842003CF0FAEF3BF00350D8A42AEF3CF02CEFC7
:107852003CF02EEF3CF0010E086E0850D8A434EF35
:107862003CF036EF3CF06DEF3CF0D28A700ED31252
:10787200D3B43EEF3CF041EF3CF0010E42EF3CF05E
:10788200000E046E0106D8A002060450D8A44CEFE4
:107892003CF04EEF3CF063EF3CF002BE5BEF3CF09D
:1078A200025006E10104D8B059EF3CF05BEF3CF026
:1078B20039EF3CF00750D8B461EF3CF063EF3CF095
:1078C20039EF3CF00450D8A469EF3CF06BEF3CF088
:1078D2006DEF3CF0010E086E0850D8A473EF3CF037
:1078E20075EF3CF0A9EF3CF0D3B67AEF3CF07DEFB8
:1078F2003CF0010E7EEF3CF0000E056E0106D8A0B2
:1079020002060550D8A488EF3CF08AEF3CF09FEFC6
:107912003CF002BE97EF3CF0025006E10104D8B001
:1079220095EF3CF097EF3CF075EF3CF00750D8B480
:107932009DEF3CF09FEF3CF075EF3CF00550D8A472
:10794200A5EF3CF0A7EF3CF0A9EF3CF0010E086E6A
:107952000850D8A4AFEF3CF0B1EF3CF0E7EF3CF0B9
:107962009B8ED288D2BEB8EF3CF0BBEF3CF0010E4A
:10797200BCEF3CF0000E066E0106D8A002060650CF
:10798200D8A4C6EF3CF0C8EF3CF0DDEF3CF002BEFD
:10799200D5EF3CF0025006E10104D8B0D3EF3CF041
:1079A200D5EF3CF0B3EF3CF00750D8B4DBEF3CF03E
:1079B200DDEF3CF0B3EF3CF00650D8A4E3EF3CF02F
:1079C200E5EF3CF0E7EF3CF0010E086E0850D8A45A
:1079D200EDEF3CF0EFEF3CF0F2EF3CF0D294FC0E16
:1079E200D31612000E50D96EDA6ADECFF6FFDDCF63
:1079F200F7FF0800F550250AD8A402EF3DF004EF86
:107A02003DF082EF3EF00E50D96EDA6ADE2A000EA9
:107A1200DD22000E396E000E386E38C03CF03A6836
:107A22003B680E50D96EDA6ADECF14F0DDCF15F066
:107A320014C0F6FF15C0F7FF0800F550640AD8B469
:107A420025EF3DF027EF3DF035EF3DF014C0F6FF96
:107A520015C0F7FF0800F550690AD8A433EF3DF0CE
:107A620035EF3DF0C5EF3DF00F50D96EDA6A020EE8
:107A7200DF26DF5CD96EDA6ADECF17F0DECF18F0D0
:107A8200010E1424106E000E1520116E0E50D96EC8
:107A9200DA6A10C0DEFF11C0DDFF200E1B6E18BEB9
:107AA20055EF3DF058EF3DF0010E59EF3DF0000E5D
:107AB200166E1B061B50C40FD96EDA6A17C001F08E
:107AC20018C002F0000E046E0A0E036EFBEC36F0D4
:107AD20001C007F002C008F052EC35F00750300F39
:107AE200DF6E17C001F018C002F0000E046E0A0E1D
:107AF200036E53EC37F001C017F002C018F01750B4
:107B02001810D8B487EF3DF089EF3DF091EF3DF0CA
:107B12001B50D8A48FEF3DF091EF3DF05AEF3DF0AE
:107B22001B50D8B497EF3DF099EF3DF0BAEF3DF01E
:107B32001650D8B49FEF3DF0A1EF3DF0BAEF3DF003
:107B42001B061B50C40FD96EDA6A2D0EDF6EBAEF18
:107B52003DF01B50C40FD96EDA6ADF50106E105020
:107B6200036E046A0CC005F00DC006F019EC38F083
:107B72001B2A200E1B18D8A4C1EF3DF0C3EF3DF025
:107B8200AAEF3DF095EF3EF0000E166E0E50D96E44
:107B9200DA6ADECFF6FFDDCFF7FF0800F550730A91
:107BA200D8A4D6EF3DF0D8EF3DF0E2EF3DF00E5015
:107BB200D96EDA6ADE2A000EDD22010E166E2EEF73
:107BC2003EF00E50D96EDA6ADECFF6FFDDCFF7FF58
:107BD2000800F5506C0AD8A4F1EF3DF0F3EF3DF048
:107BE2002EEF3EF00E50D96EDA6ADECF10F0DDCF06
:107BF20011F0010E1026000E112210C0F6FF11C066
:107C0200F7FF0800F5506C0AD8A40AEF3EF00CEF1B
:107C12003EF02EEF3EF00E50D96EDA6ADECF10F053
:107C2200DDCF11F0020E1026000E112210C0F6FF59
:107C320011C0F7FF0800F550730AD8A423EF3EF0F5
:107C420025EF3EF02EEF3EF00E50D96EDA6A030EAB
:107C5200DE26000EDD22DEEF3DF01650D8B434EF02
:107C62003EF036EF3EF07AEF3EF00F50D96EDA6A10
:107C7200020EDF26DF5CD96EDA6ADECF12F0DECFCB
:107C820013F060EF3EF012C0F6FF13C0F7FFF86A80
:107C9200070EF76403D00800F55005D0F6CFE1FFD8
:107CA200F7CFE2FFE750106E1050036E046A0CC06B
:107CB20005F00DC006F019EC38F0124A132A12C072
:107CC200F6FF13C0F7FFF86A070EF76403D0080047
:107CD200F55005D0F6CFE1FFF7CFE2FFE7500009FC
:107CE200D8A476EF3EF078EF3EF044EF3EF095EF09
:107CF2003EF00E50D96EDA6ADE2A000EDD2295EFD2
:107D02003EF00E50D96EDA6ADECFF6FFDDCFF7FF16
:107D12000800F550036E046A0CC005F00DC006F0B1
:107D220019EC38F07AEF3EF01200000000030A5B13
:107D32004573636170655D2020202043616E636539
:107D42006C6172206C612065736372697475726113
:107D520020646520756E20636F6D616E646F0D0A1D
:107D6200003C636F6D616E646F3E203C70617261B6
:107D72006D6574726F313E203C706172616D657425
:107D8200726F4E3E0D0A005B4261636B73706163FA
:107D9200655D205061726120626F7272617220753E
:107DA2006E2063617261637465720D0A005B456ED9
:107DB2007465725D20202020205061726120656E02
:107DC2007669617220656C20636F6D616E646F0D00
:107DD2000A000D0A4C696E656120646520636F6D4F
:107DE200616E646F73206465736163746976616444
:107DF200610D0A0D0A004C696E656120646520639D
:107E02006F6D616E646F7320696E6963696164612D
:107E12000D0A004552524F525F434F44455F554150
:107E220052545F4F564552464C4F570D0A00455229
:107E3200524F525F434F44455F554152545F434F47
:107E42004E464947200D0A004552524F525F434F5A
:107E520044455F554152545F4652414D494E470D8C
:107E62000A000D0A45435F434C5F57524F4E474E3F
:107E7200554D504152414D530D0A000D0A45435F85
:107E8200434C5F57524F4E47434F4D4D414E440D69
:107E92000A000D0A45435F434C5F4D41584E554D14
:107EA200504152414D530D0A004C69737461206474
:107EB2006520636F6D616E646F733A0D0A000D0A7F
:107EC20045435F434C5F574F52444F5645520D0A4C
:107ED200000D0A45435F434C5F425546464F5645A7
:107EE200520D0A00506172616D6574726F202564D3
:107EF2003A2025730D0A000D0A45435F434C5F4E3D
:107F02004F574F5244530D0A0062616A61207665F1
:107F12006C6F6369646164200D0A00616C74612096
:107F220076656C6F6369646164200D0A0044657351
:107F3200686162696C697461646F200D0A00436F45
:107F42006D616E646F3A2025730D0A0048616269A3
:107F52006C697461646F200D0A0078206261756437
:107F6200696F73200D0A0053696E74617869733A00
:107F72000D0A00636F6D616E6420330D0A00426169
:107F82007564726174653A20005265636570746F3E
:107F9200723A20004173696E63726F6E6F200063E4
:107FA2006C694465696E6974005472616E736F72B4
:107FB2003A200053696E63726F6E6F2000636F6DBB
:107FC200616E646F330050756572746F3A200031D0
:107FD20036206269747320004572726F723A200013
:107FE20038206269747320004D6F646F3A20000D6F
:0E7FF2000A3E200068656C7000082008000040
:020000040030CA
:0E00000023095F3CFFD385FF0FC00FE00F40C8
:00000001FF
