:040000008DEF07F089
:100800000062616A612076656C6F6369646164206F
:100810000D0A00616C74612076656C6F63696461B8
:1008200064200D0A00446573686162696C697461D3
:10083000646F200D0A00486162696C697461646FBD
:10084000200D0A00782062617564696F73200D0ABB
:100850000042617564726174653A20005265636597
:1008600070746F723A20004173696E63726F6E6FBD
:1008700020005472616E736F723A200053696E6388
:10088000726F6E6F200050756572746F3A20003180
:100890003620626974732000382062697473200006
:1008A0004D6F646F3A200000000E2D6E27BE64EF7E
:1008B00004F0275006E12604D8B061EF04F064EF9D
:1008C00004F0010E65EF04F0000E2C6ED2B26BEF57
:1008D00004F06EEF04F0010E6FEF04F0000E286ECE
:1008E0002606D8A027062850D8A479EF04F07BEF7D
:1008F00004F090EF04F027BE88EF04F0275006E1E3
:100900002604D8B086EF04F088EF04F066EF04F018
:100910002C50D8B48EEF04F090EF04F066EF04F0A2
:100920002850D8A496EF04F098EF04F09AEF04F062
:10093000010E2D6E2D50D8A4A0EF04F0A2EF04F00C
:10094000D9EF04F0D28A700ED312D3B4AAEF04F018
:10095000ADEF04F0010EAEEF04F0000E296E260696
:10096000D8A027062950D8A4B8EF04F0BAEF04F0B5
:10097000CFEF04F027BEC7EF04F0275006E12604AE
:10098000D8B0C5EF04F0C7EF04F0A5EF04F02C5089
:10099000D8B4CDEF04F0CFEF04F0A5EF04F0295068
:1009A000D8A4D5EF04F0D7EF04F0D9EF04F0010E8E
:1009B0002D6E2D50D8A4DFEF04F0E1EF04F015EF19
:1009C00005F0D3B6E6EF04F0E9EF04F0010EEAEF2C
:1009D00004F0000E2A6E2606D8A027062A50D8A4B6
:1009E000F4EF04F0F6EF04F00BEF05F027BE03EF91
:1009F00005F0275006E12604D8B001EF05F003EF1B
:100A000005F0E1EF04F02C50D8B409EF05F00BEF3E
:100A100005F0E1EF04F02A50D8A411EF05F013EF30
:100A200005F015EF05F0010E2D6E2D50D8A41BEF2B
:100A300005F01DEF05F053EF05F09B8ED288D2BE76
:100A400024EF05F027EF05F0010E28EF05F0000E6A
:100A50002B6E2606D8A027062B50D8A432EF05F01F
:100A600034EF05F049EF05F027BE41EF05F02750C0
:100A700006E12604D8B03FEF05F041EF05F01FEF87
:100A800005F02C50D8B447EF05F049EF05F01FEF03
:100A900005F02B50D8A44FEF05F051EF05F053EFC0
:100AA00005F0010E2D6E2D50D8A459EF05F05BEF27
:100AB00005F05EEF05F0D294FC0ED316120091EF14
:100AC00005F09C0EB06E3F0EAF6EFEEF05F0270EE8
:100AD000B06E0F0EAF6EFEEF05F0130EB06E870E08
:100AE000AF6EFEEF05F0040EB06E7F0EAF6EFEEF40
:100AF00005F0020EB06E700EAF6EFEEF05F0000E48
:100B0000B06ECF0EAF6EFEEF05F0000EB06E670E4A
:100B1000AF6EFEEF05F0040EB06EE10EAF6EFEEFAD
:100B200005F026C02AF027C02BF028C02CF029C0E1
:100B30002DF02D50000AD8B4F3EF05F08BEF05F03F
:100B40002B50010AD8B4BBEF05F0050AD8B4C2EFA8
:100B500005F00D0AD8B4C9EF05F0210AD8B4D0EFDA
:100B600005F0630AD8B4D7EF05F0AA0AD8B4DEEFCF
:100B700005F08BEF05F02A502C0AD8B461EF05F090
:100B80008BEF05F02A50B00AD8B467EF05F08BEF71
:100B900005F02A50600AD8B46DEF05F08BEF05F030
:100BA0002A50B10AD8B473EF05F08BEF05F02A5044
:100BB000000AD8B479EF05F08BEF05F02A50000A4F
:100BC000D8B47FEF05F08BEF05F02B50C20AD8B4F4
:100BD000ECEF05F08BEF05F02A50000AD8B485EF52
:100BE00005F08BEF05F02C50000AD8B4A0EF05F00B
:100BF000010AD8B4E5EF05F08BEF05F01200A00E66
:100C00003A6E80EC07F0ACA808EF06F00AEF06F0A9
:100C100010EF06F07C0E3A6E80EC07F014EF06F051
:100C2000670E3A6E80EC07F0ACA419EF06F01BEFEC
:100C300006F021EF06F0130E3A6E80EC07F025EF78
:100C400006F0010E3A6E80EC07F0510E3A6E80EC21
:100C500007F0B8A62EEF06F030EF06F036EF06F0FC
:100C60008F0E3A6E80EC07F03AEF06F0980E3A6E6F
:100C700080EC07F0440E3A6E80EC07F0860E3A6E78
:100C800080EC07F0ABAE47EF06F049EF06F04FEF10
:100C900006F0360E3A6E80EC07F053EF06F0250EA4
:100CA0003A6E80EC07F0720E3A6E80EC07F0ACAA58
:100CB0005CEF06F05EEF06F064EF06F0360E3A6E7B
:100CC00080EC07F068EF06F0250E3A6E80EC07F036
:100CD0005C0E3A6E80EC07F0ABA871EF06F073EF94
:100CE00006F079EF06F0360E3A6E80EC07F07DEFF5
:100CF00006F0250E3A6E80EC07F012002A502B10F9
:100D0000D8B485EF06F087EF06F090EF06F02A5092
:100D10002B10D8A48EEF06F090EF06F095EF06F0BA
:100D20002850A3EC07F0E2EF06F020EE0AF02A507C
:100D3000D9262B50DA22DE50DE10D8B4A2EF06F00E
:100D4000A4EF06F0BFEF06F020EE0AF02A50D926F5
:100D50002B50DA2210EE03F02A50E1262B50E2222B
:100D6000DE50E65CE650800A306EDE50800A305875
:100D7000D8B0BDEF06F0BFEF06F0E2EF06F020EED0
:100D800003F02A50D9262B50DA22DECF2CF0DDCF0B
:100D90002DF02AC0D9FF2BC0DAFFDECF2EF0DDCF39
:100DA0002FF02C502E24D96E2D502F20DA6E28C013
:100DB000DFFF20EE03F02A50D9262B50DA22DE2A5C
:100DC000000EDD2212003350D96EDA6ADFCFF6FF53
:100DD000080EF76E0800F550250AD8A4F2EF06F0C9
:100DE000F4EF06F006EF07F03350D96EDA6ADF2A27
:100DF000000E226E000E216E21C025F023682468AB
:100E00003350D96EDA6ADF2A19EF07F03350D96E02
:100E1000DA6ADFCFF6FF080EF76E0800F550286E8D
:100E2000296A31C02AF032C02BF07EEC06F000EFC8
:100E300007F012003E0E276E800E266E54EC04F072
:100E4000800E3C6E250E3D6E000E3E6E000E3F6E17
:100E50006DEC07F0210E426E7E0E426432EF07F019
:100E600034EF07F038EF07F0210E426E3CEF07F049
:100E7000425098EC07F0422A1F0E416E710E406EF0
:100E80001E0EE82EFED7402EFCD7412EFAD700D0FA
:100E90002CEF07F000EF00F037C039F05AEF07F001
:100EA00035C031F036C032F0390E336E38C034F010
:100EB000E3EC06F039C0F6FF080EF76E0800F550B7
:100EC0000009D8A466EF07F068EF07F050EF07F0CD
:100ED000000E366E000E356E12003CC026F03DC08E
:100EE00027F03EC028F03FC029F05FEC05F04A0E25
:100EF000B86E900EAB6E260EAC6EFFEC05F01200D5
:100F00003B0E3B6E000E356E000E366E3AC037F06B
:100F10003B0E386E4CEC07F0120000EE01F0250E8F
:100F2000EE6AE806FDE1000EF86E00011AEF07F028
:100F3000266EACA29EEF07F0A0EF07F099EF07F046
:100F400026C0ADFF1200276E275098EC07F0120064
:020000040030CA
:0E00000023095F3CFFD385FF0FC00FE00F40C8
:00000001FF
